{
  "data": {
    "bytecode": {
      "linkReferences": {},
      "object": "6080604052670de0b6b3a764000060025534801561001b575f80fd5b5061003861002d61004460201b60201c565b61004b60201b60201c565b6001808190555061010c565b5f33905090565b5f805f9054906101000a900473ffffffffffffffffffffffffffffffffffffffff169050815f806101000a81548173ffffffffffffffffffffffffffffffffffffffff021916908373ffffffffffffffffffffffffffffffffffffffff1602179055508173ffffffffffffffffffffffffffffffffffffffff168173ffffffffffffffffffffffffffffffffffffffff167f8be0079c531659141344cd1fd0a4f28419497f9722a3daafe3b4186f6b6457e060405160405180910390a35050565b612c38806101195f395ff3fe608060405234801561000f575f80fd5b50600436106100fe575f3560e01c8063ae169a5011610095578063d8b6e79a11610064578063d8b6e79a146102b2578063e2bbb158146102ce578063f2fde38b146102ea578063f525cb6814610306576100fe565b8063ae169a501461022c578063c20632ba14610248578063c326bf4f14610264578063cf48bd2c14610294576100fe565b8063715018a6116100d1578063715018a6146101a25780638da5cb5b146101ac57806393f1a40b146101ca57806398969e82146101fc576100fe565b80631526fe271461010257806334c1f9441461013657806339739b991461016a5780636ea056a914610186575b5f80fd5b61011c60048036038101906101179190611a3f565b610324565b60405161012d959493929190611af3565b60405180910390f35b610150600480360381019061014b9190611a3f565b6103a3565b604051610161959493929190611bd4565b60405180910390f35b610184600480360381019061017f9190611c2c565b610489565b005b6101a0600480360381019061019b9190611c94565b6104c2565b005b6101aa610643565b005b6101b4610656565b6040516101c19190611cd2565b60405180910390f35b6101e460048036038101906101df9190611ceb565b61067d565b6040516101f393929190611d29565b60405180910390f35b61021660048036038101906102119190611ceb565b6106ae565b6040516102239190611d5e565b60405180910390f35b61024660048036038101906102419190611a3f565b610735565b005b610262600480360381019061025d9190611db2565b610980565b005b61027e60048036038101906102799190611e16565b610aca565b60405161028b9190611d5e565b60405180910390f35b61029c610adf565b6040516102a99190611fd5565b60405180910390f35b6102cc60048036038101906102c79190611c2c565b610c3d565b005b6102e860048036038101906102e39190611c2c565b611029565b005b61030460048036038101906102ff9190611e16565b6113e7565b005b61030e611469565b60405161031b9190611d5e565b60405180910390f35b60048181548110610333575f80fd5b905f5260205f2090600502015f91509050805f015f9054906101000a900473ffffffffffffffffffffffffffffffffffffffff1690806001015f9054906101000a900473ffffffffffffffffffffffffffffffffffffffff16908060020154908060030154908060040154905085565b600781815481106103b2575f80fd5b905f5260205f2090600502015f91509050805f015490806001015490806002015f9054906101000a900473ffffffffffffffffffffffffffffffffffffffff169080600301805461040290612022565b80601f016020809104026020016040519081016040528092919081815260200182805461042e90612022565b80156104795780601f1061045057610100808354040283529160200191610479565b820191905f5260205f20905b81548152906001019060200180831161045c57829003601f168201915b5050505050908060040154905085565b61049161146f565b5f600483815481106104a6576104a5612052565b5b905f5260205f2090600502019050818160030181905550505050565b6104ca61146f565b5f8273ffffffffffffffffffffffffffffffffffffffff166370a08231306040518263ffffffff1660e01b81526004016105049190611cd2565b602060405180830381865afa15801561051f573d5f803e3d5ffd5b505050506040513d601f19601f820116820180604052508101906105439190612093565b905080821115610588576040517f08c379a000000000000000000000000000000000000000000000000000000000815260040161057f90612108565b60405180910390fd5b60055f8473ffffffffffffffffffffffffffffffffffffffff1673ffffffffffffffffffffffffffffffffffffffff1681526020019081526020015f205482826105d29190612153565b1015610613576040517f08c379a000000000000000000000000000000000000000000000000000000000815260040161060a906121d0565b60405180910390fd5b61063e33838573ffffffffffffffffffffffffffffffffffffffff166114ed9092919063ffffffff16565b505050565b61064b61146f565b6106545f611573565b565b5f805f9054906101000a900473ffffffffffffffffffffffffffffffffffffffff16905090565b6006602052815f5260405f20602052805f5260405f205f9150915050805f0154908060010154908060020154905083565b5f8060065f8581526020019081526020015f205f8473ffffffffffffffffffffffffffffffffffffffff1673ffffffffffffffffffffffffffffffffffffffff1681526020019081526020015f2090505f6004858154811061071357610712612052565b5b905f5260205f209060050201905061072b8282611634565b9250505092915050565b60026001540361077a576040517f08c379a000000000000000000000000000000000000000000000000000000000815260040161077190612238565b60405180910390fd5b60026001819055505f6004828154811061079757610796612052565b5b905f5260205f20906005020190505f60065f8481526020019081526020015f205f3373ffffffffffffffffffffffffffffffffffffffff1673ffffffffffffffffffffffffffffffffffffffff1681526020019081526020015f209050428160020154111561083b576040517f08c379a0000000000000000000000000000000000000000000000000000000008152600401610832906122a0565b60405180910390fd5b5f6108468284611634565b90505f811161088a576040517f08c379a000000000000000000000000000000000000000000000000000000000815260040161088190612308565b60405180910390fd5b428260010181905550826001015f9054906101000a900473ffffffffffffffffffffffffffffffffffffffff1673ffffffffffffffffffffffffffffffffffffffff1663a9059cbb33836040518363ffffffff1660e01b81526004016108f1929190612326565b6020604051808303815f875af115801561090d573d5f803e3d5ffd5b505050506040513d601f19601f820116820180604052508101906109319190612382565b506109738482336040518060400160405280600581526020017f436c61696d0000000000000000000000000000000000000000000000000000008152506116a8565b5050506001808190555050565b61098861146f565b60046040518060a001604052808673ffffffffffffffffffffffffffffffffffffffff1681526020018573ffffffffffffffffffffffffffffffffffffffff1681526020015f815260200184815260200183815250908060018154018082558091505060019003905f5260205f2090600502015f909190919091505f820151815f015f6101000a81548173ffffffffffffffffffffffffffffffffffffffff021916908373ffffffffffffffffffffffffffffffffffffffff1602179055506020820151816001015f6101000a81548173ffffffffffffffffffffffffffffffffffffffff021916908373ffffffffffffffffffffffffffffffffffffffff160217905550604082015181600201556060820151816003015560808201518160040155505060035f815480929190610abf906123ad565b919050555050505050565b6005602052805f5260405f205f915090505481565b60606007805480602002602001604051908101604052809291908181526020015f905b82821015610c34578382905f5260205f2090600502016040518060a00160405290815f820154815260200160018201548152602001600282015f9054906101000a900473ffffffffffffffffffffffffffffffffffffffff1673ffffffffffffffffffffffffffffffffffffffff1673ffffffffffffffffffffffffffffffffffffffff168152602001600382018054610b9b90612022565b80601f0160208091040260200160405190810160405280929190818152602001828054610bc790612022565b8015610c125780601f10610be957610100808354040283529160200191610c12565b820191905f5260205f20905b815481529060010190602001808311610bf557829003601f168201915b5050505050815260200160048201548152505081526020019060010190610b02565b50505050905090565b600260015403610c82576040517f08c379a0000000000000000000000000000000000000000000000000000000008152600401610c7990612238565b60405180910390fd5b60026001819055505f60065f8481526020019081526020015f205f3373ffffffffffffffffffffffffffffffffffffffff1673ffffffffffffffffffffffffffffffffffffffff1681526020019081526020015f20905081815f01541015610d1f576040517f08c379a0000000000000000000000000000000000000000000000000000000008152600401610d1690612464565b60405180910390fd5b4281600201541115610d66576040517f08c379a0000000000000000000000000000000000000000000000000000000008152600401610d5d906124f2565b60405180910390fd5b5f60048481548110610d7b57610d7a612052565b5b905f5260205f20906005020190505f610d948383611634565b90505f835f01541115610e8257816001015f9054906101000a900473ffffffffffffffffffffffffffffffffffffffff1673ffffffffffffffffffffffffffffffffffffffff1663a9059cbb33836040518363ffffffff1660e01b8152600401610dff929190612326565b6020604051808303815f875af1158015610e1b573d5f803e3d5ffd5b505050506040513d601f19601f82011682018060405250810190610e3f9190612382565b50610e818582336040518060400160405280600581526020017f436c61696d0000000000000000000000000000000000000000000000000000008152506116a8565b5b5f841115610fd15783835f015f828254610e9c9190612153565b9250508190555083826002015f828254610eb69190612153565b925050819055508360055f845f015f9054906101000a900473ffffffffffffffffffffffffffffffffffffffff1673ffffffffffffffffffffffffffffffffffffffff1673ffffffffffffffffffffffffffffffffffffffff1681526020019081526020015f205f828254610f2b9190612153565b92505081905550815f015f9054906101000a900473ffffffffffffffffffffffffffffffffffffffff1673ffffffffffffffffffffffffffffffffffffffff1663a9059cbb33866040518363ffffffff1660e01b8152600401610f8f929190612326565b6020604051808303815f875af1158015610fab573d5f803e3d5ffd5b505050506040513d601f19601f82011682018060405250810190610fcf9190612382565b505b42836001018190555061101b8585336040518060400160405280600881526020017f57697468647261770000000000000000000000000000000000000000000000008152506116a8565b505050600180819055505050565b60026001540361106e576040517f08c379a000000000000000000000000000000000000000000000000000000000815260040161106590612238565b60405180910390fd5b60026001819055505f81116110b8576040517f08c379a00000000000000000000000000000000000000000000000000000000081526004016110af9061255a565b60405180910390fd5b5f600483815481106110cd576110cc612052565b5b905f5260205f20906005020190505f60065f8581526020019081526020015f205f3373ffffffffffffffffffffffffffffffffffffffff1673ffffffffffffffffffffffffffffffffffffffff1681526020019081526020015f2090505f815f01541115611224575f6111408284611634565b9050826001015f9054906101000a900473ffffffffffffffffffffffffffffffffffffffff1673ffffffffffffffffffffffffffffffffffffffff1663a9059cbb33836040518363ffffffff1660e01b81526004016111a0929190612326565b6020604051808303815f875af11580156111bc573d5f803e3d5ffd5b505050506040513d601f19601f820116820180604052508101906111e09190612382565b506112228582336040518060400160405280600581526020017f436c61696d0000000000000000000000000000000000000000000000000000008152506116a8565b505b815f015f9054906101000a900473ffffffffffffffffffffffffffffffffffffffff1673ffffffffffffffffffffffffffffffffffffffff166323b872dd3330866040518463ffffffff1660e01b815260040161128393929190612578565b6020604051808303815f875af115801561129f573d5f803e3d5ffd5b505050506040513d601f19601f820116820180604052508101906112c39190612382565b5082826002015f8282546112d791906125ad565b9250508190555082815f015f8282546112f091906125ad565b92505081905550428160010181905550603c826004015461131191906125e0565b4261131c91906125ad565b81600201819055508260055f845f015f9054906101000a900473ffffffffffffffffffffffffffffffffffffffff1673ffffffffffffffffffffffffffffffffffffffff1673ffffffffffffffffffffffffffffffffffffffff1681526020019081526020015f205f82825461139291906125ad565b925050819055506113da8484336040518060400160405280600781526020017f4465706f736974000000000000000000000000000000000000000000000000008152506116a8565b5050600180819055505050565b6113ef61146f565b5f73ffffffffffffffffffffffffffffffffffffffff168173ffffffffffffffffffffffffffffffffffffffff160361145d576040517f08c379a000000000000000000000000000000000000000000000000000000000815260040161145490612691565b60405180910390fd5b61146681611573565b50565b60035481565b61147761178d565b73ffffffffffffffffffffffffffffffffffffffff16611495610656565b73ffffffffffffffffffffffffffffffffffffffff16146114eb576040517f08c379a00000000000000000000000000000000000000000000000000000000081526004016114e2906126f9565b60405180910390fd5b565b61156e8363a9059cbb60e01b848460405160240161150c929190612326565b604051602081830303815290604052907bffffffffffffffffffffffffffffffffffffffffffffffffffffffff19166020820180517bffffffffffffffffffffffffffffffffffffffffffffffffffffffff8381831617835250505050611794565b505050565b5f805f9054906101000a900473ffffffffffffffffffffffffffffffffffffffff169050815f806101000a81548173ffffffffffffffffffffffffffffffffffffffff021916908373ffffffffffffffffffffffffffffffffffffffff1602179055508173ffffffffffffffffffffffffffffffffffffffff168173ffffffffffffffffffffffffffffffffffffffff167f8be0079c531659141344cd1fd0a4f28419497f9722a3daafe3b4186f6b6457e060405160405180910390a35050565b5f80603c8460010154426116489190612153565b6116529190612744565b9050826004015481111561166857826004015490505b8260030154606461016d83875f015461168191906125e0565b61168b9190612744565b6116959190612744565b61169f91906125e0565b91505092915050565b60076040518060a001604052808681526020018581526020018473ffffffffffffffffffffffffffffffffffffffff16815260200183815260200142815250908060018154018082558091505060019003905f5260205f2090600502015f909190919091505f820151815f0155602082015181600101556040820151816002015f6101000a81548173ffffffffffffffffffffffffffffffffffffffff021916908373ffffffffffffffffffffffffffffffffffffffff160217905550606082015181600301908161177a9190612935565b5060808201518160040155505050505050565b5f33905090565b5f6117f5826040518060400160405280602081526020017f5361666545524332303a206c6f772d6c6576656c2063616c6c206661696c65648152508573ffffffffffffffffffffffffffffffffffffffff166118599092919063ffffffff16565b90505f8151111561185457808060200190518101906118149190612382565b611853576040517f08c379a000000000000000000000000000000000000000000000000000000000815260040161184a90612a74565b60405180910390fd5b5b505050565b606061186784845f85611870565b90509392505050565b6060824710156118b5576040517f08c379a00000000000000000000000000000000000000000000000000000000081526004016118ac90612b02565b60405180910390fd5b6118be85611980565b6118fd576040517f08c379a00000000000000000000000000000000000000000000000000000000081526004016118f490612b6a565b60405180910390fd5b5f808673ffffffffffffffffffffffffffffffffffffffff1685876040516119259190612bcc565b5f6040518083038185875af1925050503d805f811461195f576040519150601f19603f3d011682016040523d82523d5f602084013e611964565b606091505b50915091506119748282866119a2565b92505050949350505050565b5f808273ffffffffffffffffffffffffffffffffffffffff163b119050919050565b606083156119b257829050611a01565b5f835111156119c45782518084602001fd5b816040517f08c379a00000000000000000000000000000000000000000000000000000000081526004016119f89190612be2565b60405180910390fd5b9392505050565b5f80fd5b5f819050919050565b611a1e81611a0c565b8114611a28575f80fd5b50565b5f81359050611a3981611a15565b92915050565b5f60208284031215611a5457611a53611a08565b5b5f611a6184828501611a2b565b91505092915050565b5f73ffffffffffffffffffffffffffffffffffffffff82169050919050565b5f819050919050565b5f611aac611aa7611aa284611a6a565b611a89565b611a6a565b9050919050565b5f611abd82611a92565b9050919050565b5f611ace82611ab3565b9050919050565b611ade81611ac4565b82525050565b611aed81611a0c565b82525050565b5f60a082019050611b065f830188611ad5565b611b136020830187611ad5565b611b206040830186611ae4565b611b2d6060830185611ae4565b611b3a6080830184611ae4565b9695505050505050565b5f611b4e82611a6a565b9050919050565b611b5e81611b44565b82525050565b5f81519050919050565b5f82825260208201905092915050565b8281835e5f83830152505050565b5f601f19601f8301169050919050565b5f611ba682611b64565b611bb08185611b6e565b9350611bc0818560208601611b7e565b611bc981611b8c565b840191505092915050565b5f60a082019050611be75f830188611ae4565b611bf46020830187611ae4565b611c016040830186611b55565b8181036060830152611c138185611b9c565b9050611c226080830184611ae4565b9695505050505050565b5f8060408385031215611c4257611c41611a08565b5b5f611c4f85828601611a2b565b9250506020611c6085828601611a2b565b9150509250929050565b611c7381611b44565b8114611c7d575f80fd5b50565b5f81359050611c8e81611c6a565b92915050565b5f8060408385031215611caa57611ca9611a08565b5b5f611cb785828601611c80565b9250506020611cc885828601611a2b565b9150509250929050565b5f602082019050611ce55f830184611b55565b92915050565b5f8060408385031215611d0157611d00611a08565b5b5f611d0e85828601611a2b565b9250506020611d1f85828601611c80565b9150509250929050565b5f606082019050611d3c5f830186611ae4565b611d496020830185611ae4565b611d566040830184611ae4565b949350505050565b5f602082019050611d715f830184611ae4565b92915050565b5f611d8182611b44565b9050919050565b611d9181611d77565b8114611d9b575f80fd5b50565b5f81359050611dac81611d88565b92915050565b5f805f8060808587031215611dca57611dc9611a08565b5b5f611dd787828801611d9e565b9450506020611de887828801611d9e565b9350506040611df987828801611a2b565b9250506060611e0a87828801611a2b565b91505092959194509250565b5f60208284031215611e2b57611e2a611a08565b5b5f611e3884828501611c80565b91505092915050565b5f81519050919050565b5f82825260208201905092915050565b5f819050602082019050919050565b611e7381611a0c565b82525050565b611e8281611b44565b82525050565b5f82825260208201905092915050565b5f611ea282611b64565b611eac8185611e88565b9350611ebc818560208601611b7e565b611ec581611b8c565b840191505092915050565b5f60a083015f830151611ee55f860182611e6a565b506020830151611ef86020860182611e6a565b506040830151611f0b6040860182611e79565b5060608301518482036060860152611f238282611e98565b9150506080830151611f386080860182611e6a565b508091505092915050565b5f611f4e8383611ed0565b905092915050565b5f602082019050919050565b5f611f6c82611e41565b611f768185611e4b565b935083602082028501611f8885611e5b565b805f5b85811015611fc35784840389528151611fa48582611f43565b9450611faf83611f56565b925060208a01995050600181019050611f8b565b50829750879550505050505092915050565b5f6020820190508181035f830152611fed8184611f62565b905092915050565b7f4e487b71000000000000000000000000000000000000000000000000000000005f52602260045260245ffd5b5f600282049050600182168061203957607f821691505b60208210810361204c5761204b611ff5565b5b50919050565b7f4e487b71000000000000000000000000000000000000000000000000000000005f52603260045260245ffd5b5f8151905061208d81611a15565b92915050565b5f602082840312156120a8576120a7611a08565b5b5f6120b58482850161207f565b91505092915050565b7f416d6f756e7420657863656564732062616c616e6365000000000000000000005f82015250565b5f6120f2601683611b6e565b91506120fd826120be565b602082019050919050565b5f6020820190508181035f83015261211f816120e6565b9050919050565b7f4e487b71000000000000000000000000000000000000000000000000000000005f52601160045260245ffd5b5f61215d82611a0c565b915061216883611a0c565b92508282039050818111156121805761217f612126565b5b92915050565b7f43616e2774207769746864726177206465706f736974656420746f6b656e73005f82015250565b5f6121ba601f83611b6e565b91506121c582612186565b602082019050919050565b5f6020820190508181035f8301526121e7816121ae565b9050919050565b7f5265656e7472616e637947756172643a207265656e7472616e742063616c6c005f82015250565b5f612222601f83611b6e565b915061222d826121ee565b602082019050919050565b5f6020820190508181035f83015261224f81612216565b9050919050565b7f4c6f636b206973206163746976650000000000000000000000000000000000005f82015250565b5f61228a600e83611b6e565b915061229582612256565b602082019050919050565b5f6020820190508181035f8301526122b78161227e565b9050919050565b7f4e6f2072657761726420746f20636c61696d00000000000000000000000000005f82015250565b5f6122f2601283611b6e565b91506122fd826122be565b602082019050919050565b5f6020820190508181035f83015261231f816122e6565b9050919050565b5f6040820190506123395f830185611b55565b6123466020830184611ae4565b9392505050565b5f8115159050919050565b6123618161234d565b811461236b575f80fd5b50565b5f8151905061237c81612358565b92915050565b5f6020828403121561239757612396611a08565b5b5f6123a48482850161236e565b91505092915050565b5f6123b782611a0c565b91507fffffffffffffffffffffffffffffffffffffffffffffffffffffffffffffffff82036123e9576123e8612126565b5b600182019050919050565b7f576974684472617720616d6f756e7420657863656564207468652062616c616e5f8201527f6365000000000000000000000000000000000000000000000000000000000000602082015250565b5f61244e602283611b6e565b9150612459826123f4565b604082019050919050565b5f6020820190508181035f83015261247b81612442565b9050919050565b7f4c6f636b2069732041637469766520796f752063616e6e6f74207769746864725f8201527f61772061742074686973206d6f6d656e74210000000000000000000000000000602082015250565b5f6124dc603283611b6e565b91506124e782612482565b604082019050919050565b5f6020820190508181035f830152612509816124d0565b9050919050565b7f416d6f756e742073686f756c642062652067726561746572207468616e2030215f82015250565b5f612544602083611b6e565b915061254f82612510565b602082019050919050565b5f6020820190508181035f83015261257181612538565b9050919050565b5f60608201905061258b5f830186611b55565b6125986020830185611b55565b6125a56040830184611ae4565b949350505050565b5f6125b782611a0c565b91506125c283611a0c565b92508282019050808211156125da576125d9612126565b5b92915050565b5f6125ea82611a0c565b91506125f583611a0c565b925082820261260381611a0c565b9150828204841483151761261a57612619612126565b5b5092915050565b7f4f776e61626c653a206e6577206f776e657220697320746865207a65726f20615f8201527f6464726573730000000000000000000000000000000000000000000000000000602082015250565b5f61267b602683611b6e565b915061268682612621565b604082019050919050565b5f6020820190508181035f8301526126a88161266f565b9050919050565b7f4f776e61626c653a2063616c6c6572206973206e6f7420746865206f776e65725f82015250565b5f6126e3602083611b6e565b91506126ee826126af565b602082019050919050565b5f6020820190508181035f830152612710816126d7565b9050919050565b7f4e487b71000000000000000000000000000000000000000000000000000000005f52601260045260245ffd5b5f61274e82611a0c565b915061275983611a0c565b92508261276957612768612717565b5b828204905092915050565b7f4e487b71000000000000000000000000000000000000000000000000000000005f52604160045260245ffd5b5f819050815f5260205f209050919050565b5f6020601f8301049050919050565b5f82821b905092915050565b5f600883026127fd7fffffffffffffffffffffffffffffffffffffffffffffffffffffffffffffffff826127c2565b61280786836127c2565b95508019841693508086168417925050509392505050565b5f61283961283461282f84611a0c565b611a89565b611a0c565b9050919050565b5f819050919050565b6128528361281f565b61286661285e82612840565b8484546127ce565b825550505050565b5f90565b61287a61286e565b612885818484612849565b505050565b5b818110156128a85761289d5f82612872565b60018101905061288b565b5050565b601f8211156128ed576128be816127a1565b6128c7846127b3565b810160208510156128d6578190505b6128ea6128e2856127b3565b83018261288a565b50505b505050565b5f82821c905092915050565b5f61290d5f19846008026128f2565b1980831691505092915050565b5f61292583836128fe565b9150826002028217905092915050565b61293e82611b64565b67ffffffffffffffff81111561295757612956612774565b5b6129618254612022565b61296c8282856128ac565b5f60209050601f83116001811461299d575f841561298b578287015190505b612995858261291a565b8655506129fc565b601f1984166129ab866127a1565b5f5b828110156129d2578489015182556001820191506020850194506020810190506129ad565b868310156129ef57848901516129eb601f8916826128fe565b8355505b6001600288020188555050505b505050505050565b7f5361666545524332303a204552433230206f7065726174696f6e20646964206e5f8201527f6f74207375636365656400000000000000000000000000000000000000000000602082015250565b5f612a5e602a83611b6e565b9150612a6982612a04565b604082019050919050565b5f6020820190508181035f830152612a8b81612a52565b9050919050565b7f416464726573733a20696e73756666696369656e742062616c616e636520666f5f8201527f722063616c6c0000000000000000000000000000000000000000000000000000602082015250565b5f612aec602683611b6e565b9150612af782612a92565b604082019050919050565b5f6020820190508181035f830152612b1981612ae0565b9050919050565b7f416464726573733a2063616c6c20746f206e6f6e2d636f6e74726163740000005f82015250565b5f612b54601d83611b6e565b9150612b5f82612b20565b602082019050919050565b5f6020820190508181035f830152612b8181612b48565b9050919050565b5f81519050919050565b5f81905092915050565b5f612ba682612b88565b612bb08185612b92565b9350612bc0818560208601611b7e565b80840191505092915050565b5f612bd78284612b9c565b915081905092915050565b5f6020820190508181035f830152612bfa8184611b9c565b90509291505056fea26469706673582212206d35ea9e95a2df6a1b9caf5384d0db986f63958168bbf4c5c85a5a941b69019c64736f6c634300081a0033",
      "opcodes": "PUSH1 0x80 PUSH1 0x40 MSTORE PUSH8 0xDE0B6B3A7640000 PUSH1 0x2 SSTORE CALLVALUE DUP1 ISZERO PUSH2 0x1B JUMPI PUSH0 DUP1 REVERT JUMPDEST POP PUSH2 0x38 PUSH2 0x2D PUSH2 0x44 PUSH1 0x20 SHL PUSH1 0x20 SHR JUMP JUMPDEST PUSH2 0x4B PUSH1 0x20 SHL PUSH1 0x20 SHR JUMP JUMPDEST PUSH1 0x1 DUP1 DUP2 SWAP1 SSTORE POP PUSH2 0x10C JUMP JUMPDEST PUSH0 CALLER SWAP1 POP SWAP1 JUMP JUMPDEST PUSH0 DUP1 PUSH0 SWAP1 SLOAD SWAP1 PUSH2 0x100 EXP SWAP1 DIV PUSH20 0xFFFFFFFFFFFFFFFFFFFFFFFFFFFFFFFFFFFFFFFF AND SWAP1 POP DUP2 PUSH0 DUP1 PUSH2 0x100 EXP DUP2 SLOAD DUP2 PUSH20 0xFFFFFFFFFFFFFFFFFFFFFFFFFFFFFFFFFFFFFFFF MUL NOT AND SWAP1 DUP4 PUSH20 0xFFFFFFFFFFFFFFFFFFFFFFFFFFFFFFFFFFFFFFFF AND MUL OR SWAP1 SSTORE POP DUP2 PUSH20 0xFFFFFFFFFFFFFFFFFFFFFFFFFFFFFFFFFFFFFFFF AND DUP2 PUSH20 0xFFFFFFFFFFFFFFFFFFFFFFFFFFFFFFFFFFFFFFFF AND PUSH32 0x8BE0079C531659141344CD1FD0A4F28419497F9722A3DAAFE3B4186F6B6457E0 PUSH1 0x40 MLOAD PUSH1 0x40 MLOAD DUP1 SWAP2 SUB SWAP1 LOG3 POP POP JUMP JUMPDEST PUSH2 0x2C38 DUP1 PUSH2 0x119 PUSH0 CODECOPY PUSH0 RETURN INVALID PUSH1 0x80 PUSH1 0x40 MSTORE CALLVALUE DUP1 ISZERO PUSH2 0xF JUMPI PUSH0 DUP1 REVERT JUMPDEST POP PUSH1 0x4 CALLDATASIZE LT PUSH2 0xFE JUMPI PUSH0 CALLDATALOAD PUSH1 0xE0 SHR DUP1 PUSH4 0xAE169A50 GT PUSH2 0x95 JUMPI DUP1 PUSH4 0xD8B6E79A GT PUSH2 0x64 JUMPI DUP1 PUSH4 0xD8B6E79A EQ PUSH2 0x2B2 JUMPI DUP1 PUSH4 0xE2BBB158 EQ PUSH2 0x2CE JUMPI DUP1 PUSH4 0xF2FDE38B EQ PUSH2 0x2EA JUMPI DUP1 PUSH4 0xF525CB68 EQ PUSH2 0x306 JUMPI PUSH2 0xFE JUMP JUMPDEST DUP1 PUSH4 0xAE169A50 EQ PUSH2 0x22C JUMPI DUP1 PUSH4 0xC20632BA EQ PUSH2 0x248 JUMPI DUP1 PUSH4 0xC326BF4F EQ PUSH2 0x264 JUMPI DUP1 PUSH4 0xCF48BD2C EQ PUSH2 0x294 JUMPI PUSH2 0xFE JUMP JUMPDEST DUP1 PUSH4 0x715018A6 GT PUSH2 0xD1 JUMPI DUP1 PUSH4 0x715018A6 EQ PUSH2 0x1A2 JUMPI DUP1 PUSH4 0x8DA5CB5B EQ PUSH2 0x1AC JUMPI DUP1 PUSH4 0x93F1A40B EQ PUSH2 0x1CA JUMPI DUP1 PUSH4 0x98969E82 EQ PUSH2 0x1FC JUMPI PUSH2 0xFE JUMP JUMPDEST DUP1 PUSH4 0x1526FE27 EQ PUSH2 0x102 JUMPI DUP1 PUSH4 0x34C1F944 EQ PUSH2 0x136 JUMPI DUP1 PUSH4 0x39739B99 EQ PUSH2 0x16A JUMPI DUP1 PUSH4 0x6EA056A9 EQ PUSH2 0x186 JUMPI JUMPDEST PUSH0 DUP1 REVERT JUMPDEST PUSH2 0x11C PUSH1 0x4 DUP1 CALLDATASIZE SUB DUP2 ADD SWAP1 PUSH2 0x117 SWAP2 SWAP1 PUSH2 0x1A3F JUMP JUMPDEST PUSH2 0x324 JUMP JUMPDEST PUSH1 0x40 MLOAD PUSH2 0x12D SWAP6 SWAP5 SWAP4 SWAP3 SWAP2 SWAP1 PUSH2 0x1AF3 JUMP JUMPDEST PUSH1 0x40 MLOAD DUP1 SWAP2 SUB SWAP1 RETURN JUMPDEST PUSH2 0x150 PUSH1 0x4 DUP1 CALLDATASIZE SUB DUP2 ADD SWAP1 PUSH2 0x14B SWAP2 SWAP1 PUSH2 0x1A3F JUMP JUMPDEST PUSH2 0x3A3 JUMP JUMPDEST PUSH1 0x40 MLOAD PUSH2 0x161 SWAP6 SWAP5 SWAP4 SWAP3 SWAP2 SWAP1 PUSH2 0x1BD4 JUMP JUMPDEST PUSH1 0x40 MLOAD DUP1 SWAP2 SUB SWAP1 RETURN JUMPDEST PUSH2 0x184 PUSH1 0x4 DUP1 CALLDATASIZE SUB DUP2 ADD SWAP1 PUSH2 0x17F SWAP2 SWAP1 PUSH2 0x1C2C JUMP JUMPDEST PUSH2 0x489 JUMP JUMPDEST STOP JUMPDEST PUSH2 0x1A0 PUSH1 0x4 DUP1 CALLDATASIZE SUB DUP2 ADD SWAP1 PUSH2 0x19B SWAP2 SWAP1 PUSH2 0x1C94 JUMP JUMPDEST PUSH2 0x4C2 JUMP JUMPDEST STOP JUMPDEST PUSH2 0x1AA PUSH2 0x643 JUMP JUMPDEST STOP JUMPDEST PUSH2 0x1B4 PUSH2 0x656 JUMP JUMPDEST PUSH1 0x40 MLOAD PUSH2 0x1C1 SWAP2 SWAP1 PUSH2 0x1CD2 JUMP JUMPDEST PUSH1 0x40 MLOAD DUP1 SWAP2 SUB SWAP1 RETURN JUMPDEST PUSH2 0x1E4 PUSH1 0x4 DUP1 CALLDATASIZE SUB DUP2 ADD SWAP1 PUSH2 0x1DF SWAP2 SWAP1 PUSH2 0x1CEB JUMP JUMPDEST PUSH2 0x67D JUMP JUMPDEST PUSH1 0x40 MLOAD PUSH2 0x1F3 SWAP4 SWAP3 SWAP2 SWAP1 PUSH2 0x1D29 JUMP JUMPDEST PUSH1 0x40 MLOAD DUP1 SWAP2 SUB SWAP1 RETURN JUMPDEST PUSH2 0x216 PUSH1 0x4 DUP1 CALLDATASIZE SUB DUP2 ADD SWAP1 PUSH2 0x211 SWAP2 SWAP1 PUSH2 0x1CEB JUMP JUMPDEST PUSH2 0x6AE JUMP JUMPDEST PUSH1 0x40 MLOAD PUSH2 0x223 SWAP2 SWAP1 PUSH2 0x1D5E JUMP JUMPDEST PUSH1 0x40 MLOAD DUP1 SWAP2 SUB SWAP1 RETURN JUMPDEST PUSH2 0x246 PUSH1 0x4 DUP1 CALLDATASIZE SUB DUP2 ADD SWAP1 PUSH2 0x241 SWAP2 SWAP1 PUSH2 0x1A3F JUMP JUMPDEST PUSH2 0x735 JUMP JUMPDEST STOP JUMPDEST PUSH2 0x262 PUSH1 0x4 DUP1 CALLDATASIZE SUB DUP2 ADD SWAP1 PUSH2 0x25D SWAP2 SWAP1 PUSH2 0x1DB2 JUMP JUMPDEST PUSH2 0x980 JUMP JUMPDEST STOP JUMPDEST PUSH2 0x27E PUSH1 0x4 DUP1 CALLDATASIZE SUB DUP2 ADD SWAP1 PUSH2 0x279 SWAP2 SWAP1 PUSH2 0x1E16 JUMP JUMPDEST PUSH2 0xACA JUMP JUMPDEST PUSH1 0x40 MLOAD PUSH2 0x28B SWAP2 SWAP1 PUSH2 0x1D5E JUMP JUMPDEST PUSH1 0x40 MLOAD DUP1 SWAP2 SUB SWAP1 RETURN JUMPDEST PUSH2 0x29C PUSH2 0xADF JUMP JUMPDEST PUSH1 0x40 MLOAD PUSH2 0x2A9 SWAP2 SWAP1 PUSH2 0x1FD5 JUMP JUMPDEST PUSH1 0x40 MLOAD DUP1 SWAP2 SUB SWAP1 RETURN JUMPDEST PUSH2 0x2CC PUSH1 0x4 DUP1 CALLDATASIZE SUB DUP2 ADD SWAP1 PUSH2 0x2C7 SWAP2 SWAP1 PUSH2 0x1C2C JUMP JUMPDEST PUSH2 0xC3D JUMP JUMPDEST STOP JUMPDEST PUSH2 0x2E8 PUSH1 0x4 DUP1 CALLDATASIZE SUB DUP2 ADD SWAP1 PUSH2 0x2E3 SWAP2 SWAP1 PUSH2 0x1C2C JUMP JUMPDEST PUSH2 0x1029 JUMP JUMPDEST STOP JUMPDEST PUSH2 0x304 PUSH1 0x4 DUP1 CALLDATASIZE SUB DUP2 ADD SWAP1 PUSH2 0x2FF SWAP2 SWAP1 PUSH2 0x1E16 JUMP JUMPDEST PUSH2 0x13E7 JUMP JUMPDEST STOP JUMPDEST PUSH2 0x30E PUSH2 0x1469 JUMP JUMPDEST PUSH1 0x40 MLOAD PUSH2 0x31B SWAP2 SWAP1 PUSH2 0x1D5E JUMP JUMPDEST PUSH1 0x40 MLOAD DUP1 SWAP2 SUB SWAP1 RETURN JUMPDEST PUSH1 0x4 DUP2 DUP2 SLOAD DUP2 LT PUSH2 0x333 JUMPI PUSH0 DUP1 REVERT JUMPDEST SWAP1 PUSH0 MSTORE PUSH1 0x20 PUSH0 KECCAK256 SWAP1 PUSH1 0x5 MUL ADD PUSH0 SWAP2 POP SWAP1 POP DUP1 PUSH0 ADD PUSH0 SWAP1 SLOAD SWAP1 PUSH2 0x100 EXP SWAP1 DIV PUSH20 0xFFFFFFFFFFFFFFFFFFFFFFFFFFFFFFFFFFFFFFFF AND SWAP1 DUP1 PUSH1 0x1 ADD PUSH0 SWAP1 SLOAD SWAP1 PUSH2 0x100 EXP SWAP1 DIV PUSH20 0xFFFFFFFFFFFFFFFFFFFFFFFFFFFFFFFFFFFFFFFF AND SWAP1 DUP1 PUSH1 0x2 ADD SLOAD SWAP1 DUP1 PUSH1 0x3 ADD SLOAD SWAP1 DUP1 PUSH1 0x4 ADD SLOAD SWAP1 POP DUP6 JUMP JUMPDEST PUSH1 0x7 DUP2 DUP2 SLOAD DUP2 LT PUSH2 0x3B2 JUMPI PUSH0 DUP1 REVERT JUMPDEST SWAP1 PUSH0 MSTORE PUSH1 0x20 PUSH0 KECCAK256 SWAP1 PUSH1 0x5 MUL ADD PUSH0 SWAP2 POP SWAP1 POP DUP1 PUSH0 ADD SLOAD SWAP1 DUP1 PUSH1 0x1 ADD SLOAD SWAP1 DUP1 PUSH1 0x2 ADD PUSH0 SWAP1 SLOAD SWAP1 PUSH2 0x100 EXP SWAP1 DIV PUSH20 0xFFFFFFFFFFFFFFFFFFFFFFFFFFFFFFFFFFFFFFFF AND SWAP1 DUP1 PUSH1 0x3 ADD DUP1 SLOAD PUSH2 0x402 SWAP1 PUSH2 0x2022 JUMP JUMPDEST DUP1 PUSH1 0x1F ADD PUSH1 0x20 DUP1 SWAP2 DIV MUL PUSH1 0x20 ADD PUSH1 0x40 MLOAD SWAP1 DUP2 ADD PUSH1 0x40 MSTORE DUP1 SWAP3 SWAP2 SWAP1 DUP2 DUP2 MSTORE PUSH1 0x20 ADD DUP3 DUP1 SLOAD PUSH2 0x42E SWAP1 PUSH2 0x2022 JUMP JUMPDEST DUP1 ISZERO PUSH2 0x479 JUMPI DUP1 PUSH1 0x1F LT PUSH2 0x450 JUMPI PUSH2 0x100 DUP1 DUP4 SLOAD DIV MUL DUP4 MSTORE SWAP2 PUSH1 0x20 ADD SWAP2 PUSH2 0x479 JUMP JUMPDEST DUP3 ADD SWAP2 SWAP1 PUSH0 MSTORE PUSH1 0x20 PUSH0 KECCAK256 SWAP1 JUMPDEST DUP2 SLOAD DUP2 MSTORE SWAP1 PUSH1 0x1 ADD SWAP1 PUSH1 0x20 ADD DUP1 DUP4 GT PUSH2 0x45C JUMPI DUP3 SWAP1 SUB PUSH1 0x1F AND DUP3 ADD SWAP2 JUMPDEST POP POP POP POP POP SWAP1 DUP1 PUSH1 0x4 ADD SLOAD SWAP1 POP DUP6 JUMP JUMPDEST PUSH2 0x491 PUSH2 0x146F JUMP JUMPDEST PUSH0 PUSH1 0x4 DUP4 DUP2 SLOAD DUP2 LT PUSH2 0x4A6 JUMPI PUSH2 0x4A5 PUSH2 0x2052 JUMP JUMPDEST JUMPDEST SWAP1 PUSH0 MSTORE PUSH1 0x20 PUSH0 KECCAK256 SWAP1 PUSH1 0x5 MUL ADD SWAP1 POP DUP2 DUP2 PUSH1 0x3 ADD DUP2 SWAP1 SSTORE POP POP POP POP JUMP JUMPDEST PUSH2 0x4CA PUSH2 0x146F JUMP JUMPDEST PUSH0 DUP3 PUSH20 0xFFFFFFFFFFFFFFFFFFFFFFFFFFFFFFFFFFFFFFFF AND PUSH4 0x70A08231 ADDRESS PUSH1 0x40 MLOAD DUP3 PUSH4 0xFFFFFFFF AND PUSH1 0xE0 SHL DUP2 MSTORE PUSH1 0x4 ADD PUSH2 0x504 SWAP2 SWAP1 PUSH2 0x1CD2 JUMP JUMPDEST PUSH1 0x20 PUSH1 0x40 MLOAD DUP1 DUP4 SUB DUP2 DUP7 GAS STATICCALL ISZERO DUP1 ISZERO PUSH2 0x51F JUMPI RETURNDATASIZE PUSH0 DUP1 RETURNDATACOPY RETURNDATASIZE PUSH0 REVERT JUMPDEST POP POP POP POP PUSH1 0x40 MLOAD RETURNDATASIZE PUSH1 0x1F NOT PUSH1 0x1F DUP3 ADD AND DUP3 ADD DUP1 PUSH1 0x40 MSTORE POP DUP2 ADD SWAP1 PUSH2 0x543 SWAP2 SWAP1 PUSH2 0x2093 JUMP JUMPDEST SWAP1 POP DUP1 DUP3 GT ISZERO PUSH2 0x588 JUMPI PUSH1 0x40 MLOAD PUSH32 0x8C379A000000000000000000000000000000000000000000000000000000000 DUP2 MSTORE PUSH1 0x4 ADD PUSH2 0x57F SWAP1 PUSH2 0x2108 JUMP JUMPDEST PUSH1 0x40 MLOAD DUP1 SWAP2 SUB SWAP1 REVERT JUMPDEST PUSH1 0x5 PUSH0 DUP5 PUSH20 0xFFFFFFFFFFFFFFFFFFFFFFFFFFFFFFFFFFFFFFFF AND PUSH20 0xFFFFFFFFFFFFFFFFFFFFFFFFFFFFFFFFFFFFFFFF AND DUP2 MSTORE PUSH1 0x20 ADD SWAP1 DUP2 MSTORE PUSH1 0x20 ADD PUSH0 KECCAK256 SLOAD DUP3 DUP3 PUSH2 0x5D2 SWAP2 SWAP1 PUSH2 0x2153 JUMP JUMPDEST LT ISZERO PUSH2 0x613 JUMPI PUSH1 0x40 MLOAD PUSH32 0x8C379A000000000000000000000000000000000000000000000000000000000 DUP2 MSTORE PUSH1 0x4 ADD PUSH2 0x60A SWAP1 PUSH2 0x21D0 JUMP JUMPDEST PUSH1 0x40 MLOAD DUP1 SWAP2 SUB SWAP1 REVERT JUMPDEST PUSH2 0x63E CALLER DUP4 DUP6 PUSH20 0xFFFFFFFFFFFFFFFFFFFFFFFFFFFFFFFFFFFFFFFF AND PUSH2 0x14ED SWAP1 SWAP3 SWAP2 SWAP1 PUSH4 0xFFFFFFFF AND JUMP JUMPDEST POP POP POP JUMP JUMPDEST PUSH2 0x64B PUSH2 0x146F JUMP JUMPDEST PUSH2 0x654 PUSH0 PUSH2 0x1573 JUMP JUMPDEST JUMP JUMPDEST PUSH0 DUP1 PUSH0 SWAP1 SLOAD SWAP1 PUSH2 0x100 EXP SWAP1 DIV PUSH20 0xFFFFFFFFFFFFFFFFFFFFFFFFFFFFFFFFFFFFFFFF AND SWAP1 POP SWAP1 JUMP JUMPDEST PUSH1 0x6 PUSH1 0x20 MSTORE DUP2 PUSH0 MSTORE PUSH1 0x40 PUSH0 KECCAK256 PUSH1 0x20 MSTORE DUP1 PUSH0 MSTORE PUSH1 0x40 PUSH0 KECCAK256 PUSH0 SWAP2 POP SWAP2 POP POP DUP1 PUSH0 ADD SLOAD SWAP1 DUP1 PUSH1 0x1 ADD SLOAD SWAP1 DUP1 PUSH1 0x2 ADD SLOAD SWAP1 POP DUP4 JUMP JUMPDEST PUSH0 DUP1 PUSH1 0x6 PUSH0 DUP6 DUP2 MSTORE PUSH1 0x20 ADD SWAP1 DUP2 MSTORE PUSH1 0x20 ADD PUSH0 KECCAK256 PUSH0 DUP5 PUSH20 0xFFFFFFFFFFFFFFFFFFFFFFFFFFFFFFFFFFFFFFFF AND PUSH20 0xFFFFFFFFFFFFFFFFFFFFFFFFFFFFFFFFFFFFFFFF AND DUP2 MSTORE PUSH1 0x20 ADD SWAP1 DUP2 MSTORE PUSH1 0x20 ADD PUSH0 KECCAK256 SWAP1 POP PUSH0 PUSH1 0x4 DUP6 DUP2 SLOAD DUP2 LT PUSH2 0x713 JUMPI PUSH2 0x712 PUSH2 0x2052 JUMP JUMPDEST JUMPDEST SWAP1 PUSH0 MSTORE PUSH1 0x20 PUSH0 KECCAK256 SWAP1 PUSH1 0x5 MUL ADD SWAP1 POP PUSH2 0x72B DUP3 DUP3 PUSH2 0x1634 JUMP JUMPDEST SWAP3 POP POP POP SWAP3 SWAP2 POP POP JUMP JUMPDEST PUSH1 0x2 PUSH1 0x1 SLOAD SUB PUSH2 0x77A JUMPI PUSH1 0x40 MLOAD PUSH32 0x8C379A000000000000000000000000000000000000000000000000000000000 DUP2 MSTORE PUSH1 0x4 ADD PUSH2 0x771 SWAP1 PUSH2 0x2238 JUMP JUMPDEST PUSH1 0x40 MLOAD DUP1 SWAP2 SUB SWAP1 REVERT JUMPDEST PUSH1 0x2 PUSH1 0x1 DUP2 SWAP1 SSTORE POP PUSH0 PUSH1 0x4 DUP3 DUP2 SLOAD DUP2 LT PUSH2 0x797 JUMPI PUSH2 0x796 PUSH2 0x2052 JUMP JUMPDEST JUMPDEST SWAP1 PUSH0 MSTORE PUSH1 0x20 PUSH0 KECCAK256 SWAP1 PUSH1 0x5 MUL ADD SWAP1 POP PUSH0 PUSH1 0x6 PUSH0 DUP5 DUP2 MSTORE PUSH1 0x20 ADD SWAP1 DUP2 MSTORE PUSH1 0x20 ADD PUSH0 KECCAK256 PUSH0 CALLER PUSH20 0xFFFFFFFFFFFFFFFFFFFFFFFFFFFFFFFFFFFFFFFF AND PUSH20 0xFFFFFFFFFFFFFFFFFFFFFFFFFFFFFFFFFFFFFFFF AND DUP2 MSTORE PUSH1 0x20 ADD SWAP1 DUP2 MSTORE PUSH1 0x20 ADD PUSH0 KECCAK256 SWAP1 POP TIMESTAMP DUP2 PUSH1 0x2 ADD SLOAD GT ISZERO PUSH2 0x83B JUMPI PUSH1 0x40 MLOAD PUSH32 0x8C379A000000000000000000000000000000000000000000000000000000000 DUP2 MSTORE PUSH1 0x4 ADD PUSH2 0x832 SWAP1 PUSH2 0x22A0 JUMP JUMPDEST PUSH1 0x40 MLOAD DUP1 SWAP2 SUB SWAP1 REVERT JUMPDEST PUSH0 PUSH2 0x846 DUP3 DUP5 PUSH2 0x1634 JUMP JUMPDEST SWAP1 POP PUSH0 DUP2 GT PUSH2 0x88A JUMPI PUSH1 0x40 MLOAD PUSH32 0x8C379A000000000000000000000000000000000000000000000000000000000 DUP2 MSTORE PUSH1 0x4 ADD PUSH2 0x881 SWAP1 PUSH2 0x2308 JUMP JUMPDEST PUSH1 0x40 MLOAD DUP1 SWAP2 SUB SWAP1 REVERT JUMPDEST TIMESTAMP DUP3 PUSH1 0x1 ADD DUP2 SWAP1 SSTORE POP DUP3 PUSH1 0x1 ADD PUSH0 SWAP1 SLOAD SWAP1 PUSH2 0x100 EXP SWAP1 DIV PUSH20 0xFFFFFFFFFFFFFFFFFFFFFFFFFFFFFFFFFFFFFFFF AND PUSH20 0xFFFFFFFFFFFFFFFFFFFFFFFFFFFFFFFFFFFFFFFF AND PUSH4 0xA9059CBB CALLER DUP4 PUSH1 0x40 MLOAD DUP4 PUSH4 0xFFFFFFFF AND PUSH1 0xE0 SHL DUP2 MSTORE PUSH1 0x4 ADD PUSH2 0x8F1 SWAP3 SWAP2 SWAP1 PUSH2 0x2326 JUMP JUMPDEST PUSH1 0x20 PUSH1 0x40 MLOAD DUP1 DUP4 SUB DUP2 PUSH0 DUP8 GAS CALL ISZERO DUP1 ISZERO PUSH2 0x90D JUMPI RETURNDATASIZE PUSH0 DUP1 RETURNDATACOPY RETURNDATASIZE PUSH0 REVERT JUMPDEST POP POP POP POP PUSH1 0x40 MLOAD RETURNDATASIZE PUSH1 0x1F NOT PUSH1 0x1F DUP3 ADD AND DUP3 ADD DUP1 PUSH1 0x40 MSTORE POP DUP2 ADD SWAP1 PUSH2 0x931 SWAP2 SWAP1 PUSH2 0x2382 JUMP JUMPDEST POP PUSH2 0x973 DUP5 DUP3 CALLER PUSH1 0x40 MLOAD DUP1 PUSH1 0x40 ADD PUSH1 0x40 MSTORE DUP1 PUSH1 0x5 DUP2 MSTORE PUSH1 0x20 ADD PUSH32 0x436C61696D000000000000000000000000000000000000000000000000000000 DUP2 MSTORE POP PUSH2 0x16A8 JUMP JUMPDEST POP POP POP PUSH1 0x1 DUP1 DUP2 SWAP1 SSTORE POP POP JUMP JUMPDEST PUSH2 0x988 PUSH2 0x146F JUMP JUMPDEST PUSH1 0x4 PUSH1 0x40 MLOAD DUP1 PUSH1 0xA0 ADD PUSH1 0x40 MSTORE DUP1 DUP7 PUSH20 0xFFFFFFFFFFFFFFFFFFFFFFFFFFFFFFFFFFFFFFFF AND DUP2 MSTORE PUSH1 0x20 ADD DUP6 PUSH20 0xFFFFFFFFFFFFFFFFFFFFFFFFFFFFFFFFFFFFFFFF AND DUP2 MSTORE PUSH1 0x20 ADD PUSH0 DUP2 MSTORE PUSH1 0x20 ADD DUP5 DUP2 MSTORE PUSH1 0x20 ADD DUP4 DUP2 MSTORE POP SWAP1 DUP1 PUSH1 0x1 DUP2 SLOAD ADD DUP1 DUP3 SSTORE DUP1 SWAP2 POP POP PUSH1 0x1 SWAP1 SUB SWAP1 PUSH0 MSTORE PUSH1 0x20 PUSH0 KECCAK256 SWAP1 PUSH1 0x5 MUL ADD PUSH0 SWAP1 SWAP2 SWAP1 SWAP2 SWAP1 SWAP2 POP PUSH0 DUP3 ADD MLOAD DUP2 PUSH0 ADD PUSH0 PUSH2 0x100 EXP DUP2 SLOAD DUP2 PUSH20 0xFFFFFFFFFFFFFFFFFFFFFFFFFFFFFFFFFFFFFFFF MUL NOT AND SWAP1 DUP4 PUSH20 0xFFFFFFFFFFFFFFFFFFFFFFFFFFFFFFFFFFFFFFFF AND MUL OR SWAP1 SSTORE POP PUSH1 0x20 DUP3 ADD MLOAD DUP2 PUSH1 0x1 ADD PUSH0 PUSH2 0x100 EXP DUP2 SLOAD DUP2 PUSH20 0xFFFFFFFFFFFFFFFFFFFFFFFFFFFFFFFFFFFFFFFF MUL NOT AND SWAP1 DUP4 PUSH20 0xFFFFFFFFFFFFFFFFFFFFFFFFFFFFFFFFFFFFFFFF AND MUL OR SWAP1 SSTORE POP PUSH1 0x40 DUP3 ADD MLOAD DUP2 PUSH1 0x2 ADD SSTORE PUSH1 0x60 DUP3 ADD MLOAD DUP2 PUSH1 0x3 ADD SSTORE PUSH1 0x80 DUP3 ADD MLOAD DUP2 PUSH1 0x4 ADD SSTORE POP POP PUSH1 0x3 PUSH0 DUP2 SLOAD DUP1 SWAP3 SWAP2 SWAP1 PUSH2 0xABF SWAP1 PUSH2 0x23AD JUMP JUMPDEST SWAP2 SWAP1 POP SSTORE POP POP POP POP POP JUMP JUMPDEST PUSH1 0x5 PUSH1 0x20 MSTORE DUP1 PUSH0 MSTORE PUSH1 0x40 PUSH0 KECCAK256 PUSH0 SWAP2 POP SWAP1 POP SLOAD DUP2 JUMP JUMPDEST PUSH1 0x60 PUSH1 0x7 DUP1 SLOAD DUP1 PUSH1 0x20 MUL PUSH1 0x20 ADD PUSH1 0x40 MLOAD SWAP1 DUP2 ADD PUSH1 0x40 MSTORE DUP1 SWAP3 SWAP2 SWAP1 DUP2 DUP2 MSTORE PUSH1 0x20 ADD PUSH0 SWAP1 JUMPDEST DUP3 DUP3 LT ISZERO PUSH2 0xC34 JUMPI DUP4 DUP3 SWAP1 PUSH0 MSTORE PUSH1 0x20 PUSH0 KECCAK256 SWAP1 PUSH1 0x5 MUL ADD PUSH1 0x40 MLOAD DUP1 PUSH1 0xA0 ADD PUSH1 0x40 MSTORE SWAP1 DUP2 PUSH0 DUP3 ADD SLOAD DUP2 MSTORE PUSH1 0x20 ADD PUSH1 0x1 DUP3 ADD SLOAD DUP2 MSTORE PUSH1 0x20 ADD PUSH1 0x2 DUP3 ADD PUSH0 SWAP1 SLOAD SWAP1 PUSH2 0x100 EXP SWAP1 DIV PUSH20 0xFFFFFFFFFFFFFFFFFFFFFFFFFFFFFFFFFFFFFFFF AND PUSH20 0xFFFFFFFFFFFFFFFFFFFFFFFFFFFFFFFFFFFFFFFF AND PUSH20 0xFFFFFFFFFFFFFFFFFFFFFFFFFFFFFFFFFFFFFFFF AND DUP2 MSTORE PUSH1 0x20 ADD PUSH1 0x3 DUP3 ADD DUP1 SLOAD PUSH2 0xB9B SWAP1 PUSH2 0x2022 JUMP JUMPDEST DUP1 PUSH1 0x1F ADD PUSH1 0x20 DUP1 SWAP2 DIV MUL PUSH1 0x20 ADD PUSH1 0x40 MLOAD SWAP1 DUP2 ADD PUSH1 0x40 MSTORE DUP1 SWAP3 SWAP2 SWAP1 DUP2 DUP2 MSTORE PUSH1 0x20 ADD DUP3 DUP1 SLOAD PUSH2 0xBC7 SWAP1 PUSH2 0x2022 JUMP JUMPDEST DUP1 ISZERO PUSH2 0xC12 JUMPI DUP1 PUSH1 0x1F LT PUSH2 0xBE9 JUMPI PUSH2 0x100 DUP1 DUP4 SLOAD DIV MUL DUP4 MSTORE SWAP2 PUSH1 0x20 ADD SWAP2 PUSH2 0xC12 JUMP JUMPDEST DUP3 ADD SWAP2 SWAP1 PUSH0 MSTORE PUSH1 0x20 PUSH0 KECCAK256 SWAP1 JUMPDEST DUP2 SLOAD DUP2 MSTORE SWAP1 PUSH1 0x1 ADD SWAP1 PUSH1 0x20 ADD DUP1 DUP4 GT PUSH2 0xBF5 JUMPI DUP3 SWAP1 SUB PUSH1 0x1F AND DUP3 ADD SWAP2 JUMPDEST POP POP POP POP POP DUP2 MSTORE PUSH1 0x20 ADD PUSH1 0x4 DUP3 ADD SLOAD DUP2 MSTORE POP POP DUP2 MSTORE PUSH1 0x20 ADD SWAP1 PUSH1 0x1 ADD SWAP1 PUSH2 0xB02 JUMP JUMPDEST POP POP POP POP SWAP1 POP SWAP1 JUMP JUMPDEST PUSH1 0x2 PUSH1 0x1 SLOAD SUB PUSH2 0xC82 JUMPI PUSH1 0x40 MLOAD PUSH32 0x8C379A000000000000000000000000000000000000000000000000000000000 DUP2 MSTORE PUSH1 0x4 ADD PUSH2 0xC79 SWAP1 PUSH2 0x2238 JUMP JUMPDEST PUSH1 0x40 MLOAD DUP1 SWAP2 SUB SWAP1 REVERT JUMPDEST PUSH1 0x2 PUSH1 0x1 DUP2 SWAP1 SSTORE POP PUSH0 PUSH1 0x6 PUSH0 DUP5 DUP2 MSTORE PUSH1 0x20 ADD SWAP1 DUP2 MSTORE PUSH1 0x20 ADD PUSH0 KECCAK256 PUSH0 CALLER PUSH20 0xFFFFFFFFFFFFFFFFFFFFFFFFFFFFFFFFFFFFFFFF AND PUSH20 0xFFFFFFFFFFFFFFFFFFFFFFFFFFFFFFFFFFFFFFFF AND DUP2 MSTORE PUSH1 0x20 ADD SWAP1 DUP2 MSTORE PUSH1 0x20 ADD PUSH0 KECCAK256 SWAP1 POP DUP2 DUP2 PUSH0 ADD SLOAD LT ISZERO PUSH2 0xD1F JUMPI PUSH1 0x40 MLOAD PUSH32 0x8C379A000000000000000000000000000000000000000000000000000000000 DUP2 MSTORE PUSH1 0x4 ADD PUSH2 0xD16 SWAP1 PUSH2 0x2464 JUMP JUMPDEST PUSH1 0x40 MLOAD DUP1 SWAP2 SUB SWAP1 REVERT JUMPDEST TIMESTAMP DUP2 PUSH1 0x2 ADD SLOAD GT ISZERO PUSH2 0xD66 JUMPI PUSH1 0x40 MLOAD PUSH32 0x8C379A000000000000000000000000000000000000000000000000000000000 DUP2 MSTORE PUSH1 0x4 ADD PUSH2 0xD5D SWAP1 PUSH2 0x24F2 JUMP JUMPDEST PUSH1 0x40 MLOAD DUP1 SWAP2 SUB SWAP1 REVERT JUMPDEST PUSH0 PUSH1 0x4 DUP5 DUP2 SLOAD DUP2 LT PUSH2 0xD7B JUMPI PUSH2 0xD7A PUSH2 0x2052 JUMP JUMPDEST JUMPDEST SWAP1 PUSH0 MSTORE PUSH1 0x20 PUSH0 KECCAK256 SWAP1 PUSH1 0x5 MUL ADD SWAP1 POP PUSH0 PUSH2 0xD94 DUP4 DUP4 PUSH2 0x1634 JUMP JUMPDEST SWAP1 POP PUSH0 DUP4 PUSH0 ADD SLOAD GT ISZERO PUSH2 0xE82 JUMPI DUP2 PUSH1 0x1 ADD PUSH0 SWAP1 SLOAD SWAP1 PUSH2 0x100 EXP SWAP1 DIV PUSH20 0xFFFFFFFFFFFFFFFFFFFFFFFFFFFFFFFFFFFFFFFF AND PUSH20 0xFFFFFFFFFFFFFFFFFFFFFFFFFFFFFFFFFFFFFFFF AND PUSH4 0xA9059CBB CALLER DUP4 PUSH1 0x40 MLOAD DUP4 PUSH4 0xFFFFFFFF AND PUSH1 0xE0 SHL DUP2 MSTORE PUSH1 0x4 ADD PUSH2 0xDFF SWAP3 SWAP2 SWAP1 PUSH2 0x2326 JUMP JUMPDEST PUSH1 0x20 PUSH1 0x40 MLOAD DUP1 DUP4 SUB DUP2 PUSH0 DUP8 GAS CALL ISZERO DUP1 ISZERO PUSH2 0xE1B JUMPI RETURNDATASIZE PUSH0 DUP1 RETURNDATACOPY RETURNDATASIZE PUSH0 REVERT JUMPDEST POP POP POP POP PUSH1 0x40 MLOAD RETURNDATASIZE PUSH1 0x1F NOT PUSH1 0x1F DUP3 ADD AND DUP3 ADD DUP1 PUSH1 0x40 MSTORE POP DUP2 ADD SWAP1 PUSH2 0xE3F SWAP2 SWAP1 PUSH2 0x2382 JUMP JUMPDEST POP PUSH2 0xE81 DUP6 DUP3 CALLER PUSH1 0x40 MLOAD DUP1 PUSH1 0x40 ADD PUSH1 0x40 MSTORE DUP1 PUSH1 0x5 DUP2 MSTORE PUSH1 0x20 ADD PUSH32 0x436C61696D000000000000000000000000000000000000000000000000000000 DUP2 MSTORE POP PUSH2 0x16A8 JUMP JUMPDEST JUMPDEST PUSH0 DUP5 GT ISZERO PUSH2 0xFD1 JUMPI DUP4 DUP4 PUSH0 ADD PUSH0 DUP3 DUP3 SLOAD PUSH2 0xE9C SWAP2 SWAP1 PUSH2 0x2153 JUMP JUMPDEST SWAP3 POP POP DUP2 SWAP1 SSTORE POP DUP4 DUP3 PUSH1 0x2 ADD PUSH0 DUP3 DUP3 SLOAD PUSH2 0xEB6 SWAP2 SWAP1 PUSH2 0x2153 JUMP JUMPDEST SWAP3 POP POP DUP2 SWAP1 SSTORE POP DUP4 PUSH1 0x5 PUSH0 DUP5 PUSH0 ADD PUSH0 SWAP1 SLOAD SWAP1 PUSH2 0x100 EXP SWAP1 DIV PUSH20 0xFFFFFFFFFFFFFFFFFFFFFFFFFFFFFFFFFFFFFFFF AND PUSH20 0xFFFFFFFFFFFFFFFFFFFFFFFFFFFFFFFFFFFFFFFF AND PUSH20 0xFFFFFFFFFFFFFFFFFFFFFFFFFFFFFFFFFFFFFFFF AND DUP2 MSTORE PUSH1 0x20 ADD SWAP1 DUP2 MSTORE PUSH1 0x20 ADD PUSH0 KECCAK256 PUSH0 DUP3 DUP3 SLOAD PUSH2 0xF2B SWAP2 SWAP1 PUSH2 0x2153 JUMP JUMPDEST SWAP3 POP POP DUP2 SWAP1 SSTORE POP DUP2 PUSH0 ADD PUSH0 SWAP1 SLOAD SWAP1 PUSH2 0x100 EXP SWAP1 DIV PUSH20 0xFFFFFFFFFFFFFFFFFFFFFFFFFFFFFFFFFFFFFFFF AND PUSH20 0xFFFFFFFFFFFFFFFFFFFFFFFFFFFFFFFFFFFFFFFF AND PUSH4 0xA9059CBB CALLER DUP7 PUSH1 0x40 MLOAD DUP4 PUSH4 0xFFFFFFFF AND PUSH1 0xE0 SHL DUP2 MSTORE PUSH1 0x4 ADD PUSH2 0xF8F SWAP3 SWAP2 SWAP1 PUSH2 0x2326 JUMP JUMPDEST PUSH1 0x20 PUSH1 0x40 MLOAD DUP1 DUP4 SUB DUP2 PUSH0 DUP8 GAS CALL ISZERO DUP1 ISZERO PUSH2 0xFAB JUMPI RETURNDATASIZE PUSH0 DUP1 RETURNDATACOPY RETURNDATASIZE PUSH0 REVERT JUMPDEST POP POP POP POP PUSH1 0x40 MLOAD RETURNDATASIZE PUSH1 0x1F NOT PUSH1 0x1F DUP3 ADD AND DUP3 ADD DUP1 PUSH1 0x40 MSTORE POP DUP2 ADD SWAP1 PUSH2 0xFCF SWAP2 SWAP1 PUSH2 0x2382 JUMP JUMPDEST POP JUMPDEST TIMESTAMP DUP4 PUSH1 0x1 ADD DUP2 SWAP1 SSTORE POP PUSH2 0x101B DUP6 DUP6 CALLER PUSH1 0x40 MLOAD DUP1 PUSH1 0x40 ADD PUSH1 0x40 MSTORE DUP1 PUSH1 0x8 DUP2 MSTORE PUSH1 0x20 ADD PUSH32 0x5769746864726177000000000000000000000000000000000000000000000000 DUP2 MSTORE POP PUSH2 0x16A8 JUMP JUMPDEST POP POP POP PUSH1 0x1 DUP1 DUP2 SWAP1 SSTORE POP POP POP JUMP JUMPDEST PUSH1 0x2 PUSH1 0x1 SLOAD SUB PUSH2 0x106E JUMPI PUSH1 0x40 MLOAD PUSH32 0x8C379A000000000000000000000000000000000000000000000000000000000 DUP2 MSTORE PUSH1 0x4 ADD PUSH2 0x1065 SWAP1 PUSH2 0x2238 JUMP JUMPDEST PUSH1 0x40 MLOAD DUP1 SWAP2 SUB SWAP1 REVERT JUMPDEST PUSH1 0x2 PUSH1 0x1 DUP2 SWAP1 SSTORE POP PUSH0 DUP2 GT PUSH2 0x10B8 JUMPI PUSH1 0x40 MLOAD PUSH32 0x8C379A000000000000000000000000000000000000000000000000000000000 DUP2 MSTORE PUSH1 0x4 ADD PUSH2 0x10AF SWAP1 PUSH2 0x255A JUMP JUMPDEST PUSH1 0x40 MLOAD DUP1 SWAP2 SUB SWAP1 REVERT JUMPDEST PUSH0 PUSH1 0x4 DUP4 DUP2 SLOAD DUP2 LT PUSH2 0x10CD JUMPI PUSH2 0x10CC PUSH2 0x2052 JUMP JUMPDEST JUMPDEST SWAP1 PUSH0 MSTORE PUSH1 0x20 PUSH0 KECCAK256 SWAP1 PUSH1 0x5 MUL ADD SWAP1 POP PUSH0 PUSH1 0x6 PUSH0 DUP6 DUP2 MSTORE PUSH1 0x20 ADD SWAP1 DUP2 MSTORE PUSH1 0x20 ADD PUSH0 KECCAK256 PUSH0 CALLER PUSH20 0xFFFFFFFFFFFFFFFFFFFFFFFFFFFFFFFFFFFFFFFF AND PUSH20 0xFFFFFFFFFFFFFFFFFFFFFFFFFFFFFFFFFFFFFFFF AND DUP2 MSTORE PUSH1 0x20 ADD SWAP1 DUP2 MSTORE PUSH1 0x20 ADD PUSH0 KECCAK256 SWAP1 POP PUSH0 DUP2 PUSH0 ADD SLOAD GT ISZERO PUSH2 0x1224 JUMPI PUSH0 PUSH2 0x1140 DUP3 DUP5 PUSH2 0x1634 JUMP JUMPDEST SWAP1 POP DUP3 PUSH1 0x1 ADD PUSH0 SWAP1 SLOAD SWAP1 PUSH2 0x100 EXP SWAP1 DIV PUSH20 0xFFFFFFFFFFFFFFFFFFFFFFFFFFFFFFFFFFFFFFFF AND PUSH20 0xFFFFFFFFFFFFFFFFFFFFFFFFFFFFFFFFFFFFFFFF AND PUSH4 0xA9059CBB CALLER DUP4 PUSH1 0x40 MLOAD DUP4 PUSH4 0xFFFFFFFF AND PUSH1 0xE0 SHL DUP2 MSTORE PUSH1 0x4 ADD PUSH2 0x11A0 SWAP3 SWAP2 SWAP1 PUSH2 0x2326 JUMP JUMPDEST PUSH1 0x20 PUSH1 0x40 MLOAD DUP1 DUP4 SUB DUP2 PUSH0 DUP8 GAS CALL ISZERO DUP1 ISZERO PUSH2 0x11BC JUMPI RETURNDATASIZE PUSH0 DUP1 RETURNDATACOPY RETURNDATASIZE PUSH0 REVERT JUMPDEST POP POP POP POP PUSH1 0x40 MLOAD RETURNDATASIZE PUSH1 0x1F NOT PUSH1 0x1F DUP3 ADD AND DUP3 ADD DUP1 PUSH1 0x40 MSTORE POP DUP2 ADD SWAP1 PUSH2 0x11E0 SWAP2 SWAP1 PUSH2 0x2382 JUMP JUMPDEST POP PUSH2 0x1222 DUP6 DUP3 CALLER PUSH1 0x40 MLOAD DUP1 PUSH1 0x40 ADD PUSH1 0x40 MSTORE DUP1 PUSH1 0x5 DUP2 MSTORE PUSH1 0x20 ADD PUSH32 0x436C61696D000000000000000000000000000000000000000000000000000000 DUP2 MSTORE POP PUSH2 0x16A8 JUMP JUMPDEST POP JUMPDEST DUP2 PUSH0 ADD PUSH0 SWAP1 SLOAD SWAP1 PUSH2 0x100 EXP SWAP1 DIV PUSH20 0xFFFFFFFFFFFFFFFFFFFFFFFFFFFFFFFFFFFFFFFF AND PUSH20 0xFFFFFFFFFFFFFFFFFFFFFFFFFFFFFFFFFFFFFFFF AND PUSH4 0x23B872DD CALLER ADDRESS DUP7 PUSH1 0x40 MLOAD DUP5 PUSH4 0xFFFFFFFF AND PUSH1 0xE0 SHL DUP2 MSTORE PUSH1 0x4 ADD PUSH2 0x1283 SWAP4 SWAP3 SWAP2 SWAP1 PUSH2 0x2578 JUMP JUMPDEST PUSH1 0x20 PUSH1 0x40 MLOAD DUP1 DUP4 SUB DUP2 PUSH0 DUP8 GAS CALL ISZERO DUP1 ISZERO PUSH2 0x129F JUMPI RETURNDATASIZE PUSH0 DUP1 RETURNDATACOPY RETURNDATASIZE PUSH0 REVERT JUMPDEST POP POP POP POP PUSH1 0x40 MLOAD RETURNDATASIZE PUSH1 0x1F NOT PUSH1 0x1F DUP3 ADD AND DUP3 ADD DUP1 PUSH1 0x40 MSTORE POP DUP2 ADD SWAP1 PUSH2 0x12C3 SWAP2 SWAP1 PUSH2 0x2382 JUMP JUMPDEST POP DUP3 DUP3 PUSH1 0x2 ADD PUSH0 DUP3 DUP3 SLOAD PUSH2 0x12D7 SWAP2 SWAP1 PUSH2 0x25AD JUMP JUMPDEST SWAP3 POP POP DUP2 SWAP1 SSTORE POP DUP3 DUP2 PUSH0 ADD PUSH0 DUP3 DUP3 SLOAD PUSH2 0x12F0 SWAP2 SWAP1 PUSH2 0x25AD JUMP JUMPDEST SWAP3 POP POP DUP2 SWAP1 SSTORE POP TIMESTAMP DUP2 PUSH1 0x1 ADD DUP2 SWAP1 SSTORE POP PUSH1 0x3C DUP3 PUSH1 0x4 ADD SLOAD PUSH2 0x1311 SWAP2 SWAP1 PUSH2 0x25E0 JUMP JUMPDEST TIMESTAMP PUSH2 0x131C SWAP2 SWAP1 PUSH2 0x25AD JUMP JUMPDEST DUP2 PUSH1 0x2 ADD DUP2 SWAP1 SSTORE POP DUP3 PUSH1 0x5 PUSH0 DUP5 PUSH0 ADD PUSH0 SWAP1 SLOAD SWAP1 PUSH2 0x100 EXP SWAP1 DIV PUSH20 0xFFFFFFFFFFFFFFFFFFFFFFFFFFFFFFFFFFFFFFFF AND PUSH20 0xFFFFFFFFFFFFFFFFFFFFFFFFFFFFFFFFFFFFFFFF AND PUSH20 0xFFFFFFFFFFFFFFFFFFFFFFFFFFFFFFFFFFFFFFFF AND DUP2 MSTORE PUSH1 0x20 ADD SWAP1 DUP2 MSTORE PUSH1 0x20 ADD PUSH0 KECCAK256 PUSH0 DUP3 DUP3 SLOAD PUSH2 0x1392 SWAP2 SWAP1 PUSH2 0x25AD JUMP JUMPDEST SWAP3 POP POP DUP2 SWAP1 SSTORE POP PUSH2 0x13DA DUP5 DUP5 CALLER PUSH1 0x40 MLOAD DUP1 PUSH1 0x40 ADD PUSH1 0x40 MSTORE DUP1 PUSH1 0x7 DUP2 MSTORE PUSH1 0x20 ADD PUSH32 0x4465706F73697400000000000000000000000000000000000000000000000000 DUP2 MSTORE POP PUSH2 0x16A8 JUMP JUMPDEST POP POP PUSH1 0x1 DUP1 DUP2 SWAP1 SSTORE POP POP POP JUMP JUMPDEST PUSH2 0x13EF PUSH2 0x146F JUMP JUMPDEST PUSH0 PUSH20 0xFFFFFFFFFFFFFFFFFFFFFFFFFFFFFFFFFFFFFFFF AND DUP2 PUSH20 0xFFFFFFFFFFFFFFFFFFFFFFFFFFFFFFFFFFFFFFFF AND SUB PUSH2 0x145D JUMPI PUSH1 0x40 MLOAD PUSH32 0x8C379A000000000000000000000000000000000000000000000000000000000 DUP2 MSTORE PUSH1 0x4 ADD PUSH2 0x1454 SWAP1 PUSH2 0x2691 JUMP JUMPDEST PUSH1 0x40 MLOAD DUP1 SWAP2 SUB SWAP1 REVERT JUMPDEST PUSH2 0x1466 DUP2 PUSH2 0x1573 JUMP JUMPDEST POP JUMP JUMPDEST PUSH1 0x3 SLOAD DUP2 JUMP JUMPDEST PUSH2 0x1477 PUSH2 0x178D JUMP JUMPDEST PUSH20 0xFFFFFFFFFFFFFFFFFFFFFFFFFFFFFFFFFFFFFFFF AND PUSH2 0x1495 PUSH2 0x656 JUMP JUMPDEST PUSH20 0xFFFFFFFFFFFFFFFFFFFFFFFFFFFFFFFFFFFFFFFF AND EQ PUSH2 0x14EB JUMPI PUSH1 0x40 MLOAD PUSH32 0x8C379A000000000000000000000000000000000000000000000000000000000 DUP2 MSTORE PUSH1 0x4 ADD PUSH2 0x14E2 SWAP1 PUSH2 0x26F9 JUMP JUMPDEST PUSH1 0x40 MLOAD DUP1 SWAP2 SUB SWAP1 REVERT JUMPDEST JUMP JUMPDEST PUSH2 0x156E DUP4 PUSH4 0xA9059CBB PUSH1 0xE0 SHL DUP5 DUP5 PUSH1 0x40 MLOAD PUSH1 0x24 ADD PUSH2 0x150C SWAP3 SWAP2 SWAP1 PUSH2 0x2326 JUMP JUMPDEST PUSH1 0x40 MLOAD PUSH1 0x20 DUP2 DUP4 SUB SUB DUP2 MSTORE SWAP1 PUSH1 0x40 MSTORE SWAP1 PUSH28 0xFFFFFFFFFFFFFFFFFFFFFFFFFFFFFFFFFFFFFFFFFFFFFFFFFFFFFFFF NOT AND PUSH1 0x20 DUP3 ADD DUP1 MLOAD PUSH28 0xFFFFFFFFFFFFFFFFFFFFFFFFFFFFFFFFFFFFFFFFFFFFFFFFFFFFFFFF DUP4 DUP2 DUP4 AND OR DUP4 MSTORE POP POP POP POP PUSH2 0x1794 JUMP JUMPDEST POP POP POP JUMP JUMPDEST PUSH0 DUP1 PUSH0 SWAP1 SLOAD SWAP1 PUSH2 0x100 EXP SWAP1 DIV PUSH20 0xFFFFFFFFFFFFFFFFFFFFFFFFFFFFFFFFFFFFFFFF AND SWAP1 POP DUP2 PUSH0 DUP1 PUSH2 0x100 EXP DUP2 SLOAD DUP2 PUSH20 0xFFFFFFFFFFFFFFFFFFFFFFFFFFFFFFFFFFFFFFFF MUL NOT AND SWAP1 DUP4 PUSH20 0xFFFFFFFFFFFFFFFFFFFFFFFFFFFFFFFFFFFFFFFF AND MUL OR SWAP1 SSTORE POP DUP2 PUSH20 0xFFFFFFFFFFFFFFFFFFFFFFFFFFFFFFFFFFFFFFFF AND DUP2 PUSH20 0xFFFFFFFFFFFFFFFFFFFFFFFFFFFFFFFFFFFFFFFF AND PUSH32 0x8BE0079C531659141344CD1FD0A4F28419497F9722A3DAAFE3B4186F6B6457E0 PUSH1 0x40 MLOAD PUSH1 0x40 MLOAD DUP1 SWAP2 SUB SWAP1 LOG3 POP POP JUMP JUMPDEST PUSH0 DUP1 PUSH1 0x3C DUP5 PUSH1 0x1 ADD SLOAD TIMESTAMP PUSH2 0x1648 SWAP2 SWAP1 PUSH2 0x2153 JUMP JUMPDEST PUSH2 0x1652 SWAP2 SWAP1 PUSH2 0x2744 JUMP JUMPDEST SWAP1 POP DUP3 PUSH1 0x4 ADD SLOAD DUP2 GT ISZERO PUSH2 0x1668 JUMPI DUP3 PUSH1 0x4 ADD SLOAD SWAP1 POP JUMPDEST DUP3 PUSH1 0x3 ADD SLOAD PUSH1 0x64 PUSH2 0x16D DUP4 DUP8 PUSH0 ADD SLOAD PUSH2 0x1681 SWAP2 SWAP1 PUSH2 0x25E0 JUMP JUMPDEST PUSH2 0x168B SWAP2 SWAP1 PUSH2 0x2744 JUMP JUMPDEST PUSH2 0x1695 SWAP2 SWAP1 PUSH2 0x2744 JUMP JUMPDEST PUSH2 0x169F SWAP2 SWAP1 PUSH2 0x25E0 JUMP JUMPDEST SWAP2 POP POP SWAP3 SWAP2 POP POP JUMP JUMPDEST PUSH1 0x7 PUSH1 0x40 MLOAD DUP1 PUSH1 0xA0 ADD PUSH1 0x40 MSTORE DUP1 DUP7 DUP2 MSTORE PUSH1 0x20 ADD DUP6 DUP2 MSTORE PUSH1 0x20 ADD DUP5 PUSH20 0xFFFFFFFFFFFFFFFFFFFFFFFFFFFFFFFFFFFFFFFF AND DUP2 MSTORE PUSH1 0x20 ADD DUP4 DUP2 MSTORE PUSH1 0x20 ADD TIMESTAMP DUP2 MSTORE POP SWAP1 DUP1 PUSH1 0x1 DUP2 SLOAD ADD DUP1 DUP3 SSTORE DUP1 SWAP2 POP POP PUSH1 0x1 SWAP1 SUB SWAP1 PUSH0 MSTORE PUSH1 0x20 PUSH0 KECCAK256 SWAP1 PUSH1 0x5 MUL ADD PUSH0 SWAP1 SWAP2 SWAP1 SWAP2 SWAP1 SWAP2 POP PUSH0 DUP3 ADD MLOAD DUP2 PUSH0 ADD SSTORE PUSH1 0x20 DUP3 ADD MLOAD DUP2 PUSH1 0x1 ADD SSTORE PUSH1 0x40 DUP3 ADD MLOAD DUP2 PUSH1 0x2 ADD PUSH0 PUSH2 0x100 EXP DUP2 SLOAD DUP2 PUSH20 0xFFFFFFFFFFFFFFFFFFFFFFFFFFFFFFFFFFFFFFFF MUL NOT AND SWAP1 DUP4 PUSH20 0xFFFFFFFFFFFFFFFFFFFFFFFFFFFFFFFFFFFFFFFF AND MUL OR SWAP1 SSTORE POP PUSH1 0x60 DUP3 ADD MLOAD DUP2 PUSH1 0x3 ADD SWAP1 DUP2 PUSH2 0x177A SWAP2 SWAP1 PUSH2 0x2935 JUMP JUMPDEST POP PUSH1 0x80 DUP3 ADD MLOAD DUP2 PUSH1 0x4 ADD SSTORE POP POP POP POP POP POP JUMP JUMPDEST PUSH0 CALLER SWAP1 POP SWAP1 JUMP JUMPDEST PUSH0 PUSH2 0x17F5 DUP3 PUSH1 0x40 MLOAD DUP1 PUSH1 0x40 ADD PUSH1 0x40 MSTORE DUP1 PUSH1 0x20 DUP2 MSTORE PUSH1 0x20 ADD PUSH32 0x5361666545524332303A206C6F772D6C6576656C2063616C6C206661696C6564 DUP2 MSTORE POP DUP6 PUSH20 0xFFFFFFFFFFFFFFFFFFFFFFFFFFFFFFFFFFFFFFFF AND PUSH2 0x1859 SWAP1 SWAP3 SWAP2 SWAP1 PUSH4 0xFFFFFFFF AND JUMP JUMPDEST SWAP1 POP PUSH0 DUP2 MLOAD GT ISZERO PUSH2 0x1854 JUMPI DUP1 DUP1 PUSH1 0x20 ADD SWAP1 MLOAD DUP2 ADD SWAP1 PUSH2 0x1814 SWAP2 SWAP1 PUSH2 0x2382 JUMP JUMPDEST PUSH2 0x1853 JUMPI PUSH1 0x40 MLOAD PUSH32 0x8C379A000000000000000000000000000000000000000000000000000000000 DUP2 MSTORE PUSH1 0x4 ADD PUSH2 0x184A SWAP1 PUSH2 0x2A74 JUMP JUMPDEST PUSH1 0x40 MLOAD DUP1 SWAP2 SUB SWAP1 REVERT JUMPDEST JUMPDEST POP POP POP JUMP JUMPDEST PUSH1 0x60 PUSH2 0x1867 DUP5 DUP5 PUSH0 DUP6 PUSH2 0x1870 JUMP JUMPDEST SWAP1 POP SWAP4 SWAP3 POP POP POP JUMP JUMPDEST PUSH1 0x60 DUP3 SELFBALANCE LT ISZERO PUSH2 0x18B5 JUMPI PUSH1 0x40 MLOAD PUSH32 0x8C379A000000000000000000000000000000000000000000000000000000000 DUP2 MSTORE PUSH1 0x4 ADD PUSH2 0x18AC SWAP1 PUSH2 0x2B02 JUMP JUMPDEST PUSH1 0x40 MLOAD DUP1 SWAP2 SUB SWAP1 REVERT JUMPDEST PUSH2 0x18BE DUP6 PUSH2 0x1980 JUMP JUMPDEST PUSH2 0x18FD JUMPI PUSH1 0x40 MLOAD PUSH32 0x8C379A000000000000000000000000000000000000000000000000000000000 DUP2 MSTORE PUSH1 0x4 ADD PUSH2 0x18F4 SWAP1 PUSH2 0x2B6A JUMP JUMPDEST PUSH1 0x40 MLOAD DUP1 SWAP2 SUB SWAP1 REVERT JUMPDEST PUSH0 DUP1 DUP7 PUSH20 0xFFFFFFFFFFFFFFFFFFFFFFFFFFFFFFFFFFFFFFFF AND DUP6 DUP8 PUSH1 0x40 MLOAD PUSH2 0x1925 SWAP2 SWAP1 PUSH2 0x2BCC JUMP JUMPDEST PUSH0 PUSH1 0x40 MLOAD DUP1 DUP4 SUB DUP2 DUP6 DUP8 GAS CALL SWAP3 POP POP POP RETURNDATASIZE DUP1 PUSH0 DUP2 EQ PUSH2 0x195F JUMPI PUSH1 0x40 MLOAD SWAP2 POP PUSH1 0x1F NOT PUSH1 0x3F RETURNDATASIZE ADD AND DUP3 ADD PUSH1 0x40 MSTORE RETURNDATASIZE DUP3 MSTORE RETURNDATASIZE PUSH0 PUSH1 0x20 DUP5 ADD RETURNDATACOPY PUSH2 0x1964 JUMP JUMPDEST PUSH1 0x60 SWAP2 POP JUMPDEST POP SWAP2 POP SWAP2 POP PUSH2 0x1974 DUP3 DUP3 DUP7 PUSH2 0x19A2 JUMP JUMPDEST SWAP3 POP POP POP SWAP5 SWAP4 POP POP POP POP JUMP JUMPDEST PUSH0 DUP1 DUP3 PUSH20 0xFFFFFFFFFFFFFFFFFFFFFFFFFFFFFFFFFFFFFFFF AND EXTCODESIZE GT SWAP1 POP SWAP2 SWAP1 POP JUMP JUMPDEST PUSH1 0x60 DUP4 ISZERO PUSH2 0x19B2 JUMPI DUP3 SWAP1 POP PUSH2 0x1A01 JUMP JUMPDEST PUSH0 DUP4 MLOAD GT ISZERO PUSH2 0x19C4 JUMPI DUP3 MLOAD DUP1 DUP5 PUSH1 0x20 ADD REVERT JUMPDEST DUP2 PUSH1 0x40 MLOAD PUSH32 0x8C379A000000000000000000000000000000000000000000000000000000000 DUP2 MSTORE PUSH1 0x4 ADD PUSH2 0x19F8 SWAP2 SWAP1 PUSH2 0x2BE2 JUMP JUMPDEST PUSH1 0x40 MLOAD DUP1 SWAP2 SUB SWAP1 REVERT JUMPDEST SWAP4 SWAP3 POP POP POP JUMP JUMPDEST PUSH0 DUP1 REVERT JUMPDEST PUSH0 DUP2 SWAP1 POP SWAP2 SWAP1 POP JUMP JUMPDEST PUSH2 0x1A1E DUP2 PUSH2 0x1A0C JUMP JUMPDEST DUP2 EQ PUSH2 0x1A28 JUMPI PUSH0 DUP1 REVERT JUMPDEST POP JUMP JUMPDEST PUSH0 DUP2 CALLDATALOAD SWAP1 POP PUSH2 0x1A39 DUP2 PUSH2 0x1A15 JUMP JUMPDEST SWAP3 SWAP2 POP POP JUMP JUMPDEST PUSH0 PUSH1 0x20 DUP3 DUP5 SUB SLT ISZERO PUSH2 0x1A54 JUMPI PUSH2 0x1A53 PUSH2 0x1A08 JUMP JUMPDEST JUMPDEST PUSH0 PUSH2 0x1A61 DUP5 DUP3 DUP6 ADD PUSH2 0x1A2B JUMP JUMPDEST SWAP2 POP POP SWAP3 SWAP2 POP POP JUMP JUMPDEST PUSH0 PUSH20 0xFFFFFFFFFFFFFFFFFFFFFFFFFFFFFFFFFFFFFFFF DUP3 AND SWAP1 POP SWAP2 SWAP1 POP JUMP JUMPDEST PUSH0 DUP2 SWAP1 POP SWAP2 SWAP1 POP JUMP JUMPDEST PUSH0 PUSH2 0x1AAC PUSH2 0x1AA7 PUSH2 0x1AA2 DUP5 PUSH2 0x1A6A JUMP JUMPDEST PUSH2 0x1A89 JUMP JUMPDEST PUSH2 0x1A6A JUMP JUMPDEST SWAP1 POP SWAP2 SWAP1 POP JUMP JUMPDEST PUSH0 PUSH2 0x1ABD DUP3 PUSH2 0x1A92 JUMP JUMPDEST SWAP1 POP SWAP2 SWAP1 POP JUMP JUMPDEST PUSH0 PUSH2 0x1ACE DUP3 PUSH2 0x1AB3 JUMP JUMPDEST SWAP1 POP SWAP2 SWAP1 POP JUMP JUMPDEST PUSH2 0x1ADE DUP2 PUSH2 0x1AC4 JUMP JUMPDEST DUP3 MSTORE POP POP JUMP JUMPDEST PUSH2 0x1AED DUP2 PUSH2 0x1A0C JUMP JUMPDEST DUP3 MSTORE POP POP JUMP JUMPDEST PUSH0 PUSH1 0xA0 DUP3 ADD SWAP1 POP PUSH2 0x1B06 PUSH0 DUP4 ADD DUP9 PUSH2 0x1AD5 JUMP JUMPDEST PUSH2 0x1B13 PUSH1 0x20 DUP4 ADD DUP8 PUSH2 0x1AD5 JUMP JUMPDEST PUSH2 0x1B20 PUSH1 0x40 DUP4 ADD DUP7 PUSH2 0x1AE4 JUMP JUMPDEST PUSH2 0x1B2D PUSH1 0x60 DUP4 ADD DUP6 PUSH2 0x1AE4 JUMP JUMPDEST PUSH2 0x1B3A PUSH1 0x80 DUP4 ADD DUP5 PUSH2 0x1AE4 JUMP JUMPDEST SWAP7 SWAP6 POP POP POP POP POP POP JUMP JUMPDEST PUSH0 PUSH2 0x1B4E DUP3 PUSH2 0x1A6A JUMP JUMPDEST SWAP1 POP SWAP2 SWAP1 POP JUMP JUMPDEST PUSH2 0x1B5E DUP2 PUSH2 0x1B44 JUMP JUMPDEST DUP3 MSTORE POP POP JUMP JUMPDEST PUSH0 DUP2 MLOAD SWAP1 POP SWAP2 SWAP1 POP JUMP JUMPDEST PUSH0 DUP3 DUP3 MSTORE PUSH1 0x20 DUP3 ADD SWAP1 POP SWAP3 SWAP2 POP POP JUMP JUMPDEST DUP3 DUP2 DUP4 MCOPY PUSH0 DUP4 DUP4 ADD MSTORE POP POP POP JUMP JUMPDEST PUSH0 PUSH1 0x1F NOT PUSH1 0x1F DUP4 ADD AND SWAP1 POP SWAP2 SWAP1 POP JUMP JUMPDEST PUSH0 PUSH2 0x1BA6 DUP3 PUSH2 0x1B64 JUMP JUMPDEST PUSH2 0x1BB0 DUP2 DUP6 PUSH2 0x1B6E JUMP JUMPDEST SWAP4 POP PUSH2 0x1BC0 DUP2 DUP6 PUSH1 0x20 DUP7 ADD PUSH2 0x1B7E JUMP JUMPDEST PUSH2 0x1BC9 DUP2 PUSH2 0x1B8C JUMP JUMPDEST DUP5 ADD SWAP2 POP POP SWAP3 SWAP2 POP POP JUMP JUMPDEST PUSH0 PUSH1 0xA0 DUP3 ADD SWAP1 POP PUSH2 0x1BE7 PUSH0 DUP4 ADD DUP9 PUSH2 0x1AE4 JUMP JUMPDEST PUSH2 0x1BF4 PUSH1 0x20 DUP4 ADD DUP8 PUSH2 0x1AE4 JUMP JUMPDEST PUSH2 0x1C01 PUSH1 0x40 DUP4 ADD DUP7 PUSH2 0x1B55 JUMP JUMPDEST DUP2 DUP2 SUB PUSH1 0x60 DUP4 ADD MSTORE PUSH2 0x1C13 DUP2 DUP6 PUSH2 0x1B9C JUMP JUMPDEST SWAP1 POP PUSH2 0x1C22 PUSH1 0x80 DUP4 ADD DUP5 PUSH2 0x1AE4 JUMP JUMPDEST SWAP7 SWAP6 POP POP POP POP POP POP JUMP JUMPDEST PUSH0 DUP1 PUSH1 0x40 DUP4 DUP6 SUB SLT ISZERO PUSH2 0x1C42 JUMPI PUSH2 0x1C41 PUSH2 0x1A08 JUMP JUMPDEST JUMPDEST PUSH0 PUSH2 0x1C4F DUP6 DUP3 DUP7 ADD PUSH2 0x1A2B JUMP JUMPDEST SWAP3 POP POP PUSH1 0x20 PUSH2 0x1C60 DUP6 DUP3 DUP7 ADD PUSH2 0x1A2B JUMP JUMPDEST SWAP2 POP POP SWAP3 POP SWAP3 SWAP1 POP JUMP JUMPDEST PUSH2 0x1C73 DUP2 PUSH2 0x1B44 JUMP JUMPDEST DUP2 EQ PUSH2 0x1C7D JUMPI PUSH0 DUP1 REVERT JUMPDEST POP JUMP JUMPDEST PUSH0 DUP2 CALLDATALOAD SWAP1 POP PUSH2 0x1C8E DUP2 PUSH2 0x1C6A JUMP JUMPDEST SWAP3 SWAP2 POP POP JUMP JUMPDEST PUSH0 DUP1 PUSH1 0x40 DUP4 DUP6 SUB SLT ISZERO PUSH2 0x1CAA JUMPI PUSH2 0x1CA9 PUSH2 0x1A08 JUMP JUMPDEST JUMPDEST PUSH0 PUSH2 0x1CB7 DUP6 DUP3 DUP7 ADD PUSH2 0x1C80 JUMP JUMPDEST SWAP3 POP POP PUSH1 0x20 PUSH2 0x1CC8 DUP6 DUP3 DUP7 ADD PUSH2 0x1A2B JUMP JUMPDEST SWAP2 POP POP SWAP3 POP SWAP3 SWAP1 POP JUMP JUMPDEST PUSH0 PUSH1 0x20 DUP3 ADD SWAP1 POP PUSH2 0x1CE5 PUSH0 DUP4 ADD DUP5 PUSH2 0x1B55 JUMP JUMPDEST SWAP3 SWAP2 POP POP JUMP JUMPDEST PUSH0 DUP1 PUSH1 0x40 DUP4 DUP6 SUB SLT ISZERO PUSH2 0x1D01 JUMPI PUSH2 0x1D00 PUSH2 0x1A08 JUMP JUMPDEST JUMPDEST PUSH0 PUSH2 0x1D0E DUP6 DUP3 DUP7 ADD PUSH2 0x1A2B JUMP JUMPDEST SWAP3 POP POP PUSH1 0x20 PUSH2 0x1D1F DUP6 DUP3 DUP7 ADD PUSH2 0x1C80 JUMP JUMPDEST SWAP2 POP POP SWAP3 POP SWAP3 SWAP1 POP JUMP JUMPDEST PUSH0 PUSH1 0x60 DUP3 ADD SWAP1 POP PUSH2 0x1D3C PUSH0 DUP4 ADD DUP7 PUSH2 0x1AE4 JUMP JUMPDEST PUSH2 0x1D49 PUSH1 0x20 DUP4 ADD DUP6 PUSH2 0x1AE4 JUMP JUMPDEST PUSH2 0x1D56 PUSH1 0x40 DUP4 ADD DUP5 PUSH2 0x1AE4 JUMP JUMPDEST SWAP5 SWAP4 POP POP POP POP JUMP JUMPDEST PUSH0 PUSH1 0x20 DUP3 ADD SWAP1 POP PUSH2 0x1D71 PUSH0 DUP4 ADD DUP5 PUSH2 0x1AE4 JUMP JUMPDEST SWAP3 SWAP2 POP POP JUMP JUMPDEST PUSH0 PUSH2 0x1D81 DUP3 PUSH2 0x1B44 JUMP JUMPDEST SWAP1 POP SWAP2 SWAP1 POP JUMP JUMPDEST PUSH2 0x1D91 DUP2 PUSH2 0x1D77 JUMP JUMPDEST DUP2 EQ PUSH2 0x1D9B JUMPI PUSH0 DUP1 REVERT JUMPDEST POP JUMP JUMPDEST PUSH0 DUP2 CALLDATALOAD SWAP1 POP PUSH2 0x1DAC DUP2 PUSH2 0x1D88 JUMP JUMPDEST SWAP3 SWAP2 POP POP JUMP JUMPDEST PUSH0 DUP1 PUSH0 DUP1 PUSH1 0x80 DUP6 DUP8 SUB SLT ISZERO PUSH2 0x1DCA JUMPI PUSH2 0x1DC9 PUSH2 0x1A08 JUMP JUMPDEST JUMPDEST PUSH0 PUSH2 0x1DD7 DUP8 DUP3 DUP9 ADD PUSH2 0x1D9E JUMP JUMPDEST SWAP5 POP POP PUSH1 0x20 PUSH2 0x1DE8 DUP8 DUP3 DUP9 ADD PUSH2 0x1D9E JUMP JUMPDEST SWAP4 POP POP PUSH1 0x40 PUSH2 0x1DF9 DUP8 DUP3 DUP9 ADD PUSH2 0x1A2B JUMP JUMPDEST SWAP3 POP POP PUSH1 0x60 PUSH2 0x1E0A DUP8 DUP3 DUP9 ADD PUSH2 0x1A2B JUMP JUMPDEST SWAP2 POP POP SWAP3 SWAP6 SWAP2 SWAP5 POP SWAP3 POP JUMP JUMPDEST PUSH0 PUSH1 0x20 DUP3 DUP5 SUB SLT ISZERO PUSH2 0x1E2B JUMPI PUSH2 0x1E2A PUSH2 0x1A08 JUMP JUMPDEST JUMPDEST PUSH0 PUSH2 0x1E38 DUP5 DUP3 DUP6 ADD PUSH2 0x1C80 JUMP JUMPDEST SWAP2 POP POP SWAP3 SWAP2 POP POP JUMP JUMPDEST PUSH0 DUP2 MLOAD SWAP1 POP SWAP2 SWAP1 POP JUMP JUMPDEST PUSH0 DUP3 DUP3 MSTORE PUSH1 0x20 DUP3 ADD SWAP1 POP SWAP3 SWAP2 POP POP JUMP JUMPDEST PUSH0 DUP2 SWAP1 POP PUSH1 0x20 DUP3 ADD SWAP1 POP SWAP2 SWAP1 POP JUMP JUMPDEST PUSH2 0x1E73 DUP2 PUSH2 0x1A0C JUMP JUMPDEST DUP3 MSTORE POP POP JUMP JUMPDEST PUSH2 0x1E82 DUP2 PUSH2 0x1B44 JUMP JUMPDEST DUP3 MSTORE POP POP JUMP JUMPDEST PUSH0 DUP3 DUP3 MSTORE PUSH1 0x20 DUP3 ADD SWAP1 POP SWAP3 SWAP2 POP POP JUMP JUMPDEST PUSH0 PUSH2 0x1EA2 DUP3 PUSH2 0x1B64 JUMP JUMPDEST PUSH2 0x1EAC DUP2 DUP6 PUSH2 0x1E88 JUMP JUMPDEST SWAP4 POP PUSH2 0x1EBC DUP2 DUP6 PUSH1 0x20 DUP7 ADD PUSH2 0x1B7E JUMP JUMPDEST PUSH2 0x1EC5 DUP2 PUSH2 0x1B8C JUMP JUMPDEST DUP5 ADD SWAP2 POP POP SWAP3 SWAP2 POP POP JUMP JUMPDEST PUSH0 PUSH1 0xA0 DUP4 ADD PUSH0 DUP4 ADD MLOAD PUSH2 0x1EE5 PUSH0 DUP7 ADD DUP3 PUSH2 0x1E6A JUMP JUMPDEST POP PUSH1 0x20 DUP4 ADD MLOAD PUSH2 0x1EF8 PUSH1 0x20 DUP7 ADD DUP3 PUSH2 0x1E6A JUMP JUMPDEST POP PUSH1 0x40 DUP4 ADD MLOAD PUSH2 0x1F0B PUSH1 0x40 DUP7 ADD DUP3 PUSH2 0x1E79 JUMP JUMPDEST POP PUSH1 0x60 DUP4 ADD MLOAD DUP5 DUP3 SUB PUSH1 0x60 DUP7 ADD MSTORE PUSH2 0x1F23 DUP3 DUP3 PUSH2 0x1E98 JUMP JUMPDEST SWAP2 POP POP PUSH1 0x80 DUP4 ADD MLOAD PUSH2 0x1F38 PUSH1 0x80 DUP7 ADD DUP3 PUSH2 0x1E6A JUMP JUMPDEST POP DUP1 SWAP2 POP POP SWAP3 SWAP2 POP POP JUMP JUMPDEST PUSH0 PUSH2 0x1F4E DUP4 DUP4 PUSH2 0x1ED0 JUMP JUMPDEST SWAP1 POP SWAP3 SWAP2 POP POP JUMP JUMPDEST PUSH0 PUSH1 0x20 DUP3 ADD SWAP1 POP SWAP2 SWAP1 POP JUMP JUMPDEST PUSH0 PUSH2 0x1F6C DUP3 PUSH2 0x1E41 JUMP JUMPDEST PUSH2 0x1F76 DUP2 DUP6 PUSH2 0x1E4B JUMP JUMPDEST SWAP4 POP DUP4 PUSH1 0x20 DUP3 MUL DUP6 ADD PUSH2 0x1F88 DUP6 PUSH2 0x1E5B JUMP JUMPDEST DUP1 PUSH0 JUMPDEST DUP6 DUP2 LT ISZERO PUSH2 0x1FC3 JUMPI DUP5 DUP5 SUB DUP10 MSTORE DUP2 MLOAD PUSH2 0x1FA4 DUP6 DUP3 PUSH2 0x1F43 JUMP JUMPDEST SWAP5 POP PUSH2 0x1FAF DUP4 PUSH2 0x1F56 JUMP JUMPDEST SWAP3 POP PUSH1 0x20 DUP11 ADD SWAP10 POP POP PUSH1 0x1 DUP2 ADD SWAP1 POP PUSH2 0x1F8B JUMP JUMPDEST POP DUP3 SWAP8 POP DUP8 SWAP6 POP POP POP POP POP POP SWAP3 SWAP2 POP POP JUMP JUMPDEST PUSH0 PUSH1 0x20 DUP3 ADD SWAP1 POP DUP2 DUP2 SUB PUSH0 DUP4 ADD MSTORE PUSH2 0x1FED DUP2 DUP5 PUSH2 0x1F62 JUMP JUMPDEST SWAP1 POP SWAP3 SWAP2 POP POP JUMP JUMPDEST PUSH32 0x4E487B7100000000000000000000000000000000000000000000000000000000 PUSH0 MSTORE PUSH1 0x22 PUSH1 0x4 MSTORE PUSH1 0x24 PUSH0 REVERT JUMPDEST PUSH0 PUSH1 0x2 DUP3 DIV SWAP1 POP PUSH1 0x1 DUP3 AND DUP1 PUSH2 0x2039 JUMPI PUSH1 0x7F DUP3 AND SWAP2 POP JUMPDEST PUSH1 0x20 DUP3 LT DUP2 SUB PUSH2 0x204C JUMPI PUSH2 0x204B PUSH2 0x1FF5 JUMP JUMPDEST JUMPDEST POP SWAP2 SWAP1 POP JUMP JUMPDEST PUSH32 0x4E487B7100000000000000000000000000000000000000000000000000000000 PUSH0 MSTORE PUSH1 0x32 PUSH1 0x4 MSTORE PUSH1 0x24 PUSH0 REVERT JUMPDEST PUSH0 DUP2 MLOAD SWAP1 POP PUSH2 0x208D DUP2 PUSH2 0x1A15 JUMP JUMPDEST SWAP3 SWAP2 POP POP JUMP JUMPDEST PUSH0 PUSH1 0x20 DUP3 DUP5 SUB SLT ISZERO PUSH2 0x20A8 JUMPI PUSH2 0x20A7 PUSH2 0x1A08 JUMP JUMPDEST JUMPDEST PUSH0 PUSH2 0x20B5 DUP5 DUP3 DUP6 ADD PUSH2 0x207F JUMP JUMPDEST SWAP2 POP POP SWAP3 SWAP2 POP POP JUMP JUMPDEST PUSH32 0x416D6F756E7420657863656564732062616C616E636500000000000000000000 PUSH0 DUP3 ADD MSTORE POP JUMP JUMPDEST PUSH0 PUSH2 0x20F2 PUSH1 0x16 DUP4 PUSH2 0x1B6E JUMP JUMPDEST SWAP2 POP PUSH2 0x20FD DUP3 PUSH2 0x20BE JUMP JUMPDEST PUSH1 0x20 DUP3 ADD SWAP1 POP SWAP2 SWAP1 POP JUMP JUMPDEST PUSH0 PUSH1 0x20 DUP3 ADD SWAP1 POP DUP2 DUP2 SUB PUSH0 DUP4 ADD MSTORE PUSH2 0x211F DUP2 PUSH2 0x20E6 JUMP JUMPDEST SWAP1 POP SWAP2 SWAP1 POP JUMP JUMPDEST PUSH32 0x4E487B7100000000000000000000000000000000000000000000000000000000 PUSH0 MSTORE PUSH1 0x11 PUSH1 0x4 MSTORE PUSH1 0x24 PUSH0 REVERT JUMPDEST PUSH0 PUSH2 0x215D DUP3 PUSH2 0x1A0C JUMP JUMPDEST SWAP2 POP PUSH2 0x2168 DUP4 PUSH2 0x1A0C JUMP JUMPDEST SWAP3 POP DUP3 DUP3 SUB SWAP1 POP DUP2 DUP2 GT ISZERO PUSH2 0x2180 JUMPI PUSH2 0x217F PUSH2 0x2126 JUMP JUMPDEST JUMPDEST SWAP3 SWAP2 POP POP JUMP JUMPDEST PUSH32 0x43616E2774207769746864726177206465706F736974656420746F6B656E7300 PUSH0 DUP3 ADD MSTORE POP JUMP JUMPDEST PUSH0 PUSH2 0x21BA PUSH1 0x1F DUP4 PUSH2 0x1B6E JUMP JUMPDEST SWAP2 POP PUSH2 0x21C5 DUP3 PUSH2 0x2186 JUMP JUMPDEST PUSH1 0x20 DUP3 ADD SWAP1 POP SWAP2 SWAP1 POP JUMP JUMPDEST PUSH0 PUSH1 0x20 DUP3 ADD SWAP1 POP DUP2 DUP2 SUB PUSH0 DUP4 ADD MSTORE PUSH2 0x21E7 DUP2 PUSH2 0x21AE JUMP JUMPDEST SWAP1 POP SWAP2 SWAP1 POP JUMP JUMPDEST PUSH32 0x5265656E7472616E637947756172643A207265656E7472616E742063616C6C00 PUSH0 DUP3 ADD MSTORE POP JUMP JUMPDEST PUSH0 PUSH2 0x2222 PUSH1 0x1F DUP4 PUSH2 0x1B6E JUMP JUMPDEST SWAP2 POP PUSH2 0x222D DUP3 PUSH2 0x21EE JUMP JUMPDEST PUSH1 0x20 DUP3 ADD SWAP1 POP SWAP2 SWAP1 POP JUMP JUMPDEST PUSH0 PUSH1 0x20 DUP3 ADD SWAP1 POP DUP2 DUP2 SUB PUSH0 DUP4 ADD MSTORE PUSH2 0x224F DUP2 PUSH2 0x2216 JUMP JUMPDEST SWAP1 POP SWAP2 SWAP1 POP JUMP JUMPDEST PUSH32 0x4C6F636B20697320616374697665000000000000000000000000000000000000 PUSH0 DUP3 ADD MSTORE POP JUMP JUMPDEST PUSH0 PUSH2 0x228A PUSH1 0xE DUP4 PUSH2 0x1B6E JUMP JUMPDEST SWAP2 POP PUSH2 0x2295 DUP3 PUSH2 0x2256 JUMP JUMPDEST PUSH1 0x20 DUP3 ADD SWAP1 POP SWAP2 SWAP1 POP JUMP JUMPDEST PUSH0 PUSH1 0x20 DUP3 ADD SWAP1 POP DUP2 DUP2 SUB PUSH0 DUP4 ADD MSTORE PUSH2 0x22B7 DUP2 PUSH2 0x227E JUMP JUMPDEST SWAP1 POP SWAP2 SWAP1 POP JUMP JUMPDEST PUSH32 0x4E6F2072657761726420746F20636C61696D0000000000000000000000000000 PUSH0 DUP3 ADD MSTORE POP JUMP JUMPDEST PUSH0 PUSH2 0x22F2 PUSH1 0x12 DUP4 PUSH2 0x1B6E JUMP JUMPDEST SWAP2 POP PUSH2 0x22FD DUP3 PUSH2 0x22BE JUMP JUMPDEST PUSH1 0x20 DUP3 ADD SWAP1 POP SWAP2 SWAP1 POP JUMP JUMPDEST PUSH0 PUSH1 0x20 DUP3 ADD SWAP1 POP DUP2 DUP2 SUB PUSH0 DUP4 ADD MSTORE PUSH2 0x231F DUP2 PUSH2 0x22E6 JUMP JUMPDEST SWAP1 POP SWAP2 SWAP1 POP JUMP JUMPDEST PUSH0 PUSH1 0x40 DUP3 ADD SWAP1 POP PUSH2 0x2339 PUSH0 DUP4 ADD DUP6 PUSH2 0x1B55 JUMP JUMPDEST PUSH2 0x2346 PUSH1 0x20 DUP4 ADD DUP5 PUSH2 0x1AE4 JUMP JUMPDEST SWAP4 SWAP3 POP POP POP JUMP JUMPDEST PUSH0 DUP2 ISZERO ISZERO SWAP1 POP SWAP2 SWAP1 POP JUMP JUMPDEST PUSH2 0x2361 DUP2 PUSH2 0x234D JUMP JUMPDEST DUP2 EQ PUSH2 0x236B JUMPI PUSH0 DUP1 REVERT JUMPDEST POP JUMP JUMPDEST PUSH0 DUP2 MLOAD SWAP1 POP PUSH2 0x237C DUP2 PUSH2 0x2358 JUMP JUMPDEST SWAP3 SWAP2 POP POP JUMP JUMPDEST PUSH0 PUSH1 0x20 DUP3 DUP5 SUB SLT ISZERO PUSH2 0x2397 JUMPI PUSH2 0x2396 PUSH2 0x1A08 JUMP JUMPDEST JUMPDEST PUSH0 PUSH2 0x23A4 DUP5 DUP3 DUP6 ADD PUSH2 0x236E JUMP JUMPDEST SWAP2 POP POP SWAP3 SWAP2 POP POP JUMP JUMPDEST PUSH0 PUSH2 0x23B7 DUP3 PUSH2 0x1A0C JUMP JUMPDEST SWAP2 POP PUSH32 0xFFFFFFFFFFFFFFFFFFFFFFFFFFFFFFFFFFFFFFFFFFFFFFFFFFFFFFFFFFFFFFFF DUP3 SUB PUSH2 0x23E9 JUMPI PUSH2 0x23E8 PUSH2 0x2126 JUMP JUMPDEST JUMPDEST PUSH1 0x1 DUP3 ADD SWAP1 POP SWAP2 SWAP1 POP JUMP JUMPDEST PUSH32 0x576974684472617720616D6F756E7420657863656564207468652062616C616E PUSH0 DUP3 ADD MSTORE PUSH32 0x6365000000000000000000000000000000000000000000000000000000000000 PUSH1 0x20 DUP3 ADD MSTORE POP JUMP JUMPDEST PUSH0 PUSH2 0x244E PUSH1 0x22 DUP4 PUSH2 0x1B6E JUMP JUMPDEST SWAP2 POP PUSH2 0x2459 DUP3 PUSH2 0x23F4 JUMP JUMPDEST PUSH1 0x40 DUP3 ADD SWAP1 POP SWAP2 SWAP1 POP JUMP JUMPDEST PUSH0 PUSH1 0x20 DUP3 ADD SWAP1 POP DUP2 DUP2 SUB PUSH0 DUP4 ADD MSTORE PUSH2 0x247B DUP2 PUSH2 0x2442 JUMP JUMPDEST SWAP1 POP SWAP2 SWAP1 POP JUMP JUMPDEST PUSH32 0x4C6F636B2069732041637469766520796F752063616E6E6F7420776974686472 PUSH0 DUP3 ADD MSTORE PUSH32 0x61772061742074686973206D6F6D656E74210000000000000000000000000000 PUSH1 0x20 DUP3 ADD MSTORE POP JUMP JUMPDEST PUSH0 PUSH2 0x24DC PUSH1 0x32 DUP4 PUSH2 0x1B6E JUMP JUMPDEST SWAP2 POP PUSH2 0x24E7 DUP3 PUSH2 0x2482 JUMP JUMPDEST PUSH1 0x40 DUP3 ADD SWAP1 POP SWAP2 SWAP1 POP JUMP JUMPDEST PUSH0 PUSH1 0x20 DUP3 ADD SWAP1 POP DUP2 DUP2 SUB PUSH0 DUP4 ADD MSTORE PUSH2 0x2509 DUP2 PUSH2 0x24D0 JUMP JUMPDEST SWAP1 POP SWAP2 SWAP1 POP JUMP JUMPDEST PUSH32 0x416D6F756E742073686F756C642062652067726561746572207468616E203021 PUSH0 DUP3 ADD MSTORE POP JUMP JUMPDEST PUSH0 PUSH2 0x2544 PUSH1 0x20 DUP4 PUSH2 0x1B6E JUMP JUMPDEST SWAP2 POP PUSH2 0x254F DUP3 PUSH2 0x2510 JUMP JUMPDEST PUSH1 0x20 DUP3 ADD SWAP1 POP SWAP2 SWAP1 POP JUMP JUMPDEST PUSH0 PUSH1 0x20 DUP3 ADD SWAP1 POP DUP2 DUP2 SUB PUSH0 DUP4 ADD MSTORE PUSH2 0x2571 DUP2 PUSH2 0x2538 JUMP JUMPDEST SWAP1 POP SWAP2 SWAP1 POP JUMP JUMPDEST PUSH0 PUSH1 0x60 DUP3 ADD SWAP1 POP PUSH2 0x258B PUSH0 DUP4 ADD DUP7 PUSH2 0x1B55 JUMP JUMPDEST PUSH2 0x2598 PUSH1 0x20 DUP4 ADD DUP6 PUSH2 0x1B55 JUMP JUMPDEST PUSH2 0x25A5 PUSH1 0x40 DUP4 ADD DUP5 PUSH2 0x1AE4 JUMP JUMPDEST SWAP5 SWAP4 POP POP POP POP JUMP JUMPDEST PUSH0 PUSH2 0x25B7 DUP3 PUSH2 0x1A0C JUMP JUMPDEST SWAP2 POP PUSH2 0x25C2 DUP4 PUSH2 0x1A0C JUMP JUMPDEST SWAP3 POP DUP3 DUP3 ADD SWAP1 POP DUP1 DUP3 GT ISZERO PUSH2 0x25DA JUMPI PUSH2 0x25D9 PUSH2 0x2126 JUMP JUMPDEST JUMPDEST SWAP3 SWAP2 POP POP JUMP JUMPDEST PUSH0 PUSH2 0x25EA DUP3 PUSH2 0x1A0C JUMP JUMPDEST SWAP2 POP PUSH2 0x25F5 DUP4 PUSH2 0x1A0C JUMP JUMPDEST SWAP3 POP DUP3 DUP3 MUL PUSH2 0x2603 DUP2 PUSH2 0x1A0C JUMP JUMPDEST SWAP2 POP DUP3 DUP3 DIV DUP5 EQ DUP4 ISZERO OR PUSH2 0x261A JUMPI PUSH2 0x2619 PUSH2 0x2126 JUMP JUMPDEST JUMPDEST POP SWAP3 SWAP2 POP POP JUMP JUMPDEST PUSH32 0x4F776E61626C653A206E6577206F776E657220697320746865207A65726F2061 PUSH0 DUP3 ADD MSTORE PUSH32 0x6464726573730000000000000000000000000000000000000000000000000000 PUSH1 0x20 DUP3 ADD MSTORE POP JUMP JUMPDEST PUSH0 PUSH2 0x267B PUSH1 0x26 DUP4 PUSH2 0x1B6E JUMP JUMPDEST SWAP2 POP PUSH2 0x2686 DUP3 PUSH2 0x2621 JUMP JUMPDEST PUSH1 0x40 DUP3 ADD SWAP1 POP SWAP2 SWAP1 POP JUMP JUMPDEST PUSH0 PUSH1 0x20 DUP3 ADD SWAP1 POP DUP2 DUP2 SUB PUSH0 DUP4 ADD MSTORE PUSH2 0x26A8 DUP2 PUSH2 0x266F JUMP JUMPDEST SWAP1 POP SWAP2 SWAP1 POP JUMP JUMPDEST PUSH32 0x4F776E61626C653A2063616C6C6572206973206E6F7420746865206F776E6572 PUSH0 DUP3 ADD MSTORE POP JUMP JUMPDEST PUSH0 PUSH2 0x26E3 PUSH1 0x20 DUP4 PUSH2 0x1B6E JUMP JUMPDEST SWAP2 POP PUSH2 0x26EE DUP3 PUSH2 0x26AF JUMP JUMPDEST PUSH1 0x20 DUP3 ADD SWAP1 POP SWAP2 SWAP1 POP JUMP JUMPDEST PUSH0 PUSH1 0x20 DUP3 ADD SWAP1 POP DUP2 DUP2 SUB PUSH0 DUP4 ADD MSTORE PUSH2 0x2710 DUP2 PUSH2 0x26D7 JUMP JUMPDEST SWAP1 POP SWAP2 SWAP1 POP JUMP JUMPDEST PUSH32 0x4E487B7100000000000000000000000000000000000000000000000000000000 PUSH0 MSTORE PUSH1 0x12 PUSH1 0x4 MSTORE PUSH1 0x24 PUSH0 REVERT JUMPDEST PUSH0 PUSH2 0x274E DUP3 PUSH2 0x1A0C JUMP JUMPDEST SWAP2 POP PUSH2 0x2759 DUP4 PUSH2 0x1A0C JUMP JUMPDEST SWAP3 POP DUP3 PUSH2 0x2769 JUMPI PUSH2 0x2768 PUSH2 0x2717 JUMP JUMPDEST JUMPDEST DUP3 DUP3 DIV SWAP1 POP SWAP3 SWAP2 POP POP JUMP JUMPDEST PUSH32 0x4E487B7100000000000000000000000000000000000000000000000000000000 PUSH0 MSTORE PUSH1 0x41 PUSH1 0x4 MSTORE PUSH1 0x24 PUSH0 REVERT JUMPDEST PUSH0 DUP2 SWAP1 POP DUP2 PUSH0 MSTORE PUSH1 0x20 PUSH0 KECCAK256 SWAP1 POP SWAP2 SWAP1 POP JUMP JUMPDEST PUSH0 PUSH1 0x20 PUSH1 0x1F DUP4 ADD DIV SWAP1 POP SWAP2 SWAP1 POP JUMP JUMPDEST PUSH0 DUP3 DUP3 SHL SWAP1 POP SWAP3 SWAP2 POP POP JUMP JUMPDEST PUSH0 PUSH1 0x8 DUP4 MUL PUSH2 0x27FD PUSH32 0xFFFFFFFFFFFFFFFFFFFFFFFFFFFFFFFFFFFFFFFFFFFFFFFFFFFFFFFFFFFFFFFF DUP3 PUSH2 0x27C2 JUMP JUMPDEST PUSH2 0x2807 DUP7 DUP4 PUSH2 0x27C2 JUMP JUMPDEST SWAP6 POP DUP1 NOT DUP5 AND SWAP4 POP DUP1 DUP7 AND DUP5 OR SWAP3 POP POP POP SWAP4 SWAP3 POP POP POP JUMP JUMPDEST PUSH0 PUSH2 0x2839 PUSH2 0x2834 PUSH2 0x282F DUP5 PUSH2 0x1A0C JUMP JUMPDEST PUSH2 0x1A89 JUMP JUMPDEST PUSH2 0x1A0C JUMP JUMPDEST SWAP1 POP SWAP2 SWAP1 POP JUMP JUMPDEST PUSH0 DUP2 SWAP1 POP SWAP2 SWAP1 POP JUMP JUMPDEST PUSH2 0x2852 DUP4 PUSH2 0x281F JUMP JUMPDEST PUSH2 0x2866 PUSH2 0x285E DUP3 PUSH2 0x2840 JUMP JUMPDEST DUP5 DUP5 SLOAD PUSH2 0x27CE JUMP JUMPDEST DUP3 SSTORE POP POP POP POP JUMP JUMPDEST PUSH0 SWAP1 JUMP JUMPDEST PUSH2 0x287A PUSH2 0x286E JUMP JUMPDEST PUSH2 0x2885 DUP2 DUP5 DUP5 PUSH2 0x2849 JUMP JUMPDEST POP POP POP JUMP JUMPDEST JUMPDEST DUP2 DUP2 LT ISZERO PUSH2 0x28A8 JUMPI PUSH2 0x289D PUSH0 DUP3 PUSH2 0x2872 JUMP JUMPDEST PUSH1 0x1 DUP2 ADD SWAP1 POP PUSH2 0x288B JUMP JUMPDEST POP POP JUMP JUMPDEST PUSH1 0x1F DUP3 GT ISZERO PUSH2 0x28ED JUMPI PUSH2 0x28BE DUP2 PUSH2 0x27A1 JUMP JUMPDEST PUSH2 0x28C7 DUP5 PUSH2 0x27B3 JUMP JUMPDEST DUP2 ADD PUSH1 0x20 DUP6 LT ISZERO PUSH2 0x28D6 JUMPI DUP2 SWAP1 POP JUMPDEST PUSH2 0x28EA PUSH2 0x28E2 DUP6 PUSH2 0x27B3 JUMP JUMPDEST DUP4 ADD DUP3 PUSH2 0x288A JUMP JUMPDEST POP POP JUMPDEST POP POP POP JUMP JUMPDEST PUSH0 DUP3 DUP3 SHR SWAP1 POP SWAP3 SWAP2 POP POP JUMP JUMPDEST PUSH0 PUSH2 0x290D PUSH0 NOT DUP5 PUSH1 0x8 MUL PUSH2 0x28F2 JUMP JUMPDEST NOT DUP1 DUP4 AND SWAP2 POP POP SWAP3 SWAP2 POP POP JUMP JUMPDEST PUSH0 PUSH2 0x2925 DUP4 DUP4 PUSH2 0x28FE JUMP JUMPDEST SWAP2 POP DUP3 PUSH1 0x2 MUL DUP3 OR SWAP1 POP SWAP3 SWAP2 POP POP JUMP JUMPDEST PUSH2 0x293E DUP3 PUSH2 0x1B64 JUMP JUMPDEST PUSH8 0xFFFFFFFFFFFFFFFF DUP2 GT ISZERO PUSH2 0x2957 JUMPI PUSH2 0x2956 PUSH2 0x2774 JUMP JUMPDEST JUMPDEST PUSH2 0x2961 DUP3 SLOAD PUSH2 0x2022 JUMP JUMPDEST PUSH2 0x296C DUP3 DUP3 DUP6 PUSH2 0x28AC JUMP JUMPDEST PUSH0 PUSH1 0x20 SWAP1 POP PUSH1 0x1F DUP4 GT PUSH1 0x1 DUP2 EQ PUSH2 0x299D JUMPI PUSH0 DUP5 ISZERO PUSH2 0x298B JUMPI DUP3 DUP8 ADD MLOAD SWAP1 POP JUMPDEST PUSH2 0x2995 DUP6 DUP3 PUSH2 0x291A JUMP JUMPDEST DUP7 SSTORE POP PUSH2 0x29FC JUMP JUMPDEST PUSH1 0x1F NOT DUP5 AND PUSH2 0x29AB DUP7 PUSH2 0x27A1 JUMP JUMPDEST PUSH0 JUMPDEST DUP3 DUP2 LT ISZERO PUSH2 0x29D2 JUMPI DUP5 DUP10 ADD MLOAD DUP3 SSTORE PUSH1 0x1 DUP3 ADD SWAP2 POP PUSH1 0x20 DUP6 ADD SWAP5 POP PUSH1 0x20 DUP2 ADD SWAP1 POP PUSH2 0x29AD JUMP JUMPDEST DUP7 DUP4 LT ISZERO PUSH2 0x29EF JUMPI DUP5 DUP10 ADD MLOAD PUSH2 0x29EB PUSH1 0x1F DUP10 AND DUP3 PUSH2 0x28FE JUMP JUMPDEST DUP4 SSTORE POP JUMPDEST PUSH1 0x1 PUSH1 0x2 DUP9 MUL ADD DUP9 SSTORE POP POP POP JUMPDEST POP POP POP POP POP POP JUMP JUMPDEST PUSH32 0x5361666545524332303A204552433230206F7065726174696F6E20646964206E PUSH0 DUP3 ADD MSTORE PUSH32 0x6F74207375636365656400000000000000000000000000000000000000000000 PUSH1 0x20 DUP3 ADD MSTORE POP JUMP JUMPDEST PUSH0 PUSH2 0x2A5E PUSH1 0x2A DUP4 PUSH2 0x1B6E JUMP JUMPDEST SWAP2 POP PUSH2 0x2A69 DUP3 PUSH2 0x2A04 JUMP JUMPDEST PUSH1 0x40 DUP3 ADD SWAP1 POP SWAP2 SWAP1 POP JUMP JUMPDEST PUSH0 PUSH1 0x20 DUP3 ADD SWAP1 POP DUP2 DUP2 SUB PUSH0 DUP4 ADD MSTORE PUSH2 0x2A8B DUP2 PUSH2 0x2A52 JUMP JUMPDEST SWAP1 POP SWAP2 SWAP1 POP JUMP JUMPDEST PUSH32 0x416464726573733A20696E73756666696369656E742062616C616E636520666F PUSH0 DUP3 ADD MSTORE PUSH32 0x722063616C6C0000000000000000000000000000000000000000000000000000 PUSH1 0x20 DUP3 ADD MSTORE POP JUMP JUMPDEST PUSH0 PUSH2 0x2AEC PUSH1 0x26 DUP4 PUSH2 0x1B6E JUMP JUMPDEST SWAP2 POP PUSH2 0x2AF7 DUP3 PUSH2 0x2A92 JUMP JUMPDEST PUSH1 0x40 DUP3 ADD SWAP1 POP SWAP2 SWAP1 POP JUMP JUMPDEST PUSH0 PUSH1 0x20 DUP3 ADD SWAP1 POP DUP2 DUP2 SUB PUSH0 DUP4 ADD MSTORE PUSH2 0x2B19 DUP2 PUSH2 0x2AE0 JUMP JUMPDEST SWAP1 POP SWAP2 SWAP1 POP JUMP JUMPDEST PUSH32 0x416464726573733A2063616C6C20746F206E6F6E2D636F6E7472616374000000 PUSH0 DUP3 ADD MSTORE POP JUMP JUMPDEST PUSH0 PUSH2 0x2B54 PUSH1 0x1D DUP4 PUSH2 0x1B6E JUMP JUMPDEST SWAP2 POP PUSH2 0x2B5F DUP3 PUSH2 0x2B20 JUMP JUMPDEST PUSH1 0x20 DUP3 ADD SWAP1 POP SWAP2 SWAP1 POP JUMP JUMPDEST PUSH0 PUSH1 0x20 DUP3 ADD SWAP1 POP DUP2 DUP2 SUB PUSH0 DUP4 ADD MSTORE PUSH2 0x2B81 DUP2 PUSH2 0x2B48 JUMP JUMPDEST SWAP1 POP SWAP2 SWAP1 POP JUMP JUMPDEST PUSH0 DUP2 MLOAD SWAP1 POP SWAP2 SWAP1 POP JUMP JUMPDEST PUSH0 DUP2 SWAP1 POP SWAP3 SWAP2 POP POP JUMP JUMPDEST PUSH0 PUSH2 0x2BA6 DUP3 PUSH2 0x2B88 JUMP JUMPDEST PUSH2 0x2BB0 DUP2 DUP6 PUSH2 0x2B92 JUMP JUMPDEST SWAP4 POP PUSH2 0x2BC0 DUP2 DUP6 PUSH1 0x20 DUP7 ADD PUSH2 0x1B7E JUMP JUMPDEST DUP1 DUP5 ADD SWAP2 POP POP SWAP3 SWAP2 POP POP JUMP JUMPDEST PUSH0 PUSH2 0x2BD7 DUP3 DUP5 PUSH2 0x2B9C JUMP JUMPDEST SWAP2 POP DUP2 SWAP1 POP SWAP3 SWAP2 POP POP JUMP JUMPDEST PUSH0 PUSH1 0x20 DUP3 ADD SWAP1 POP DUP2 DUP2 SUB PUSH0 DUP4 ADD MSTORE PUSH2 0x2BFA DUP2 DUP5 PUSH2 0x1B9C JUMP JUMPDEST SWAP1 POP SWAP3 SWAP2 POP POP JUMP INVALID LOG2 PUSH5 0x6970667358 0x22 SLT KECCAK256 PUSH14 0x35EA9E95A2DF6A1B9CAF5384D0DB SWAP9 PUSH16 0x63958168BBF4C5C85A5A941B69019C64 PUSH20 0x6F6C634300081A00330000000000000000000000 "
    },
    "gasEstimates": {
      "creation": {
        "codeDepositCost": "2264000",
        "executionCost": "infinite",
        "totalCost": "infinite"
      },
      "external": {
        "addPool(address,address,uint256,uint256)": "infinite",
        "claimReward(uint256)": "infinite",
        "deposit(uint256,uint256)": "infinite",
        "depositedTokens(address)": "2869",
        "getNotifications()": "infinite",
        "modifyPool(uint256,uint256)": "infinite",
        "notifications(uint256)": "infinite",
        "owner()": "2560",
        "pendingReward(uint256,address)": "infinite",
        "poolCount()": "2513",
        "poolInfo(uint256)": "infinite",
        "renounceOwnership()": "30413",
        "sweep(address,uint256)": "infinite",
        "transferOwnership(address)": "30797",
        "userInfo(uint256,address)": "infinite",
        "withDraw(uint256,uint256)": "infinite"
      },
      "internal": {
        "_calcPendingReward(struct StakingDapp.UserInfo storage pointer,struct StakingDapp.PoolInfo storage pointer)": "infinite",
        "_createNotification(uint256,uint256,address,string memory)": "infinite"
      }
    },
    "methodIdentifiers": {
      "addPool(address,address,uint256,uint256)": "c20632ba",
      "claimReward(uint256)": "ae169a50",
      "deposit(uint256,uint256)": "e2bbb158",
      "depositedTokens(address)": "c326bf4f",
      "getNotifications()": "cf48bd2c",
      "modifyPool(uint256,uint256)": "39739b99",
      "notifications(uint256)": "34c1f944",
      "owner()": "8da5cb5b",
      "pendingReward(uint256,address)": "98969e82",
      "poolCount()": "f525cb68",
      "poolInfo(uint256)": "1526fe27",
      "renounceOwnership()": "715018a6",
      "sweep(address,uint256)": "6ea056a9",
      "transferOwnership(address)": "f2fde38b",
      "userInfo(uint256,address)": "93f1a40b",
      "withDraw(uint256,uint256)": "d8b6e79a"
    }
  },
  "abi": [
    {
      "anonymous": false,
      "inputs": [
        {
          "indexed": true,
          "internalType": "address",
          "name": "previousOwner",
          "type": "address"
        },
        {
          "indexed": true,
          "internalType": "address",
          "name": "newOwner",
          "type": "address"
        }
      ],
      "name": "OwnershipTransferred",
      "type": "event"
    },
    {
      "inputs": [
        {
          "internalType": "contract IERC20",
          "name": "_depositToken",
          "type": "address"
        },
        {
          "internalType": "contract IERC20",
          "name": "_rewardToken",
          "type": "address"
        },
        {
          "internalType": "uint256",
          "name": "_apy",
          "type": "uint256"
        },
        {
          "internalType": "uint256",
          "name": "_lockDays",
          "type": "uint256"
        }
      ],
      "name": "addPool",
      "outputs": [],
      "stateMutability": "nonpayable",
      "type": "function"
    },
    {
      "inputs": [
        {
          "internalType": "uint256",
          "name": "_pid",
          "type": "uint256"
        }
      ],
      "name": "claimReward",
      "outputs": [],
      "stateMutability": "nonpayable",
      "type": "function"
    },
    {
      "inputs": [
        {
          "internalType": "uint256",
          "name": "_pid",
          "type": "uint256"
        },
        {
          "internalType": "uint256",
          "name": "_amount",
          "type": "uint256"
        }
      ],
      "name": "deposit",
      "outputs": [],
      "stateMutability": "nonpayable",
      "type": "function"
    },
    {
      "inputs": [
        {
          "internalType": "address",
          "name": "",
          "type": "address"
        }
      ],
      "name": "depositedTokens",
      "outputs": [
        {
          "internalType": "uint256",
          "name": "",
          "type": "uint256"
        }
      ],
      "stateMutability": "view",
      "type": "function"
    },
    {
      "inputs": [],
      "name": "getNotifications",
      "outputs": [
        {
          "components": [
            {
              "internalType": "uint256",
              "name": "poolID",
              "type": "uint256"
            },
            {
              "internalType": "uint256",
              "name": "amount",
              "type": "uint256"
            },
            {
              "internalType": "address",
              "name": "user",
              "type": "address"
            },
            {
              "internalType": "string",
              "name": "typeOf",
              "type": "string"
            },
            {
              "internalType": "uint256",
              "name": "timeStamp",
              "type": "uint256"
            }
          ],
          "internalType": "struct StakingDapp.Notification[]",
          "name": "",
          "type": "tuple[]"
        }
      ],
      "stateMutability": "view",
      "type": "function"
    },
    {
      "inputs": [
        {
          "internalType": "uint256",
          "name": "_pid",
          "type": "uint256"
        },
        {
          "internalType": "uint256",
          "name": "_apy",
          "type": "uint256"
        }
      ],
      "name": "modifyPool",
      "outputs": [],
      "stateMutability": "nonpayable",
      "type": "function"
    },
    {
      "inputs": [
        {
          "internalType": "uint256",
          "name": "",
          "type": "uint256"
        }
      ],
      "name": "notifications",
      "outputs": [
        {
          "internalType": "uint256",
          "name": "poolID",
          "type": "uint256"
        },
        {
          "internalType": "uint256",
          "name": "amount",
          "type": "uint256"
        },
        {
          "internalType": "address",
          "name": "user",
          "type": "address"
        },
        {
          "internalType": "string",
          "name": "typeOf",
          "type": "string"
        },
        {
          "internalType": "uint256",
          "name": "timeStamp",
          "type": "uint256"
        }
      ],
      "stateMutability": "view",
      "type": "function"
    },
    {
      "inputs": [],
      "name": "owner",
      "outputs": [
        {
          "internalType": "address",
          "name": "",
          "type": "address"
        }
      ],
      "stateMutability": "view",
      "type": "function"
    },
    {
      "inputs": [
        {
          "internalType": "uint256",
          "name": "_pid",
          "type": "uint256"
        },
        {
          "internalType": "address",
          "name": "_user",
          "type": "address"
        }
      ],
      "name": "pendingReward",
      "outputs": [
        {
          "internalType": "uint256",
          "name": "",
          "type": "uint256"
        }
      ],
      "stateMutability": "view",
      "type": "function"
    },
    {
      "inputs": [],
      "name": "poolCount",
      "outputs": [
        {
          "internalType": "uint256",
          "name": "",
          "type": "uint256"
        }
      ],
      "stateMutability": "view",
      "type": "function"
    },
    {
      "inputs": [
        {
          "internalType": "uint256",
          "name": "",
          "type": "uint256"
        }
      ],
      "name": "poolInfo",
      "outputs": [
        {
          "internalType": "contract IERC20",
          "name": "depositToken",
          "type": "address"
        },
        {
          "internalType": "contract IERC20",
          "name": "rewardToken",
          "type": "address"
        },
        {
          "internalType": "uint256",
          "name": "depositedAmount",
          "type": "uint256"
        },
        {
          "internalType": "uint256",
          "name": "apy",
          "type": "uint256"
        },
        {
          "internalType": "uint256",
          "name": "lockDays",
          "type": "uint256"
        }
      ],
      "stateMutability": "view",
      "type": "function"
    },
    {
      "inputs": [],
      "name": "renounceOwnership",
      "outputs": [],
      "stateMutability": "nonpayable",
      "type": "function"
    },
    {
      "inputs": [
        {
          "internalType": "address",
          "name": "token",
          "type": "address"
        },
        {
          "internalType": "uint256",
          "name": "amount",
          "type": "uint256"
        }
      ],
      "name": "sweep",
      "outputs": [],
      "stateMutability": "nonpayable",
      "type": "function"
    },
    {
      "inputs": [
        {
          "internalType": "address",
          "name": "newOwner",
          "type": "address"
        }
      ],
      "name": "transferOwnership",
      "outputs": [],
      "stateMutability": "nonpayable",
      "type": "function"
    },
    {
      "inputs": [
        {
          "internalType": "uint256",
          "name": "",
          "type": "uint256"
        },
        {
          "internalType": "address",
          "name": "",
          "type": "address"
        }
      ],
      "name": "userInfo",
      "outputs": [
        {
          "internalType": "uint256",
          "name": "amount",
          "type": "uint256"
        },
        {
          "internalType": "uint256",
          "name": "lastRewardAt",
          "type": "uint256"
        },
        {
          "internalType": "uint256",
          "name": "lockUntil",
          "type": "uint256"
        }
      ],
      "stateMutability": "view",
      "type": "function"
    },
    {
      "inputs": [
        {
          "internalType": "uint256",
          "name": "_pid",
          "type": "uint256"
        },
        {
          "internalType": "uint256",
          "name": "_amount",
          "type": "uint256"
        }
      ],
      "name": "withDraw",
      "outputs": [],
      "stateMutability": "nonpayable",
      "type": "function"
    }
  ]
}